:020000040800F2
:10000000F85600203902000843360008E9010008CC
:100010003136000841180008696C00080000000033
:100020000000000000000000000000007146000811
:10003000B51800080000000073010008315A0008DC
:10004000530200085302000853020008530200083C
:10005000530200085302000853020008530200082C
:10006000530200085302000853020008530200081C
:10007000530200085302000853020008530200080C
:1000800053020008530200085302000853020008FC
:10009000530200085302000853020008551D0008CF
:1000A00053020008530200085302000853020008DC
:1000B000E75A0008E95A0008EB5A00085302000802
:1000C00053020008530200085302000853020008BC
:1000D00053020008FD6B0008216C0008456C000805
:1000E000531D000853020008530200085302000881
:1000F000530200085302000853020008530200088C
:100100005302000853020008ED5A00085302000889
:10011000B9690008BB690008EF5A0008F15A0008E5
:10012000530200085302000853020008530200085B
:10013000DFF80CD000F03CFE004800473515000801
:10014000F8560020EFF3108072B6704780F31088E5
:100150007047324A1368012B04D04FF0010313603B
:100160002F4A10602F4A11602F484FF080510160D4
:100170007047EFF3108272B62848016891B14FF0D2
:10018000000101602648016829B1EFF3098121E9E6
:10019000F00F00680160234909680968B1E8F00FB1
:1001A00081F3098882F310884EF0040E70471D49D0
:1001B00008601B494FF00000086018494FF001002B
:1001C00008601A481A49D0F8002041EA020101608B
:1001D00015484FF08051016016480068006880F3B0
:1001E000088861B662B670471EF0040F0CBFEFF3CB
:1001F0000880EFF3098020E9F00F40F804ED1EF0CD
:10020000040F0CBF80F3088880F3098800B507F05D
:1002100067FF5DF804EB4EF0040E7047880E002077
:10022000800E0020840E002004ED00E020ED00E0B0
:100230000000FFFF08ED00E0064880470648004741
:10024000FEE7FEE7FEE7FEE7FEE7FEE7FEE7FEE786
:10025000FEE7FEE7E55A0008310100082DE9F0410C
:100260000024061B254671F1000605DA012400274B
:10027000D0EB070067EB0101161E73F1000605DAEB
:100280000027D2EB0702012567EB030300F002FC15
:1002900086460E4617469C46AC4204D00025D0EB5D
:1002A000050E65EB010624B10020D2EB000760EBE0
:1002B000030C704631463A466346BDE8F081202A79
:1002C00004DB203A21FA02F00021704721FA02F300
:1002D000D040C2F12002914008431946704740EADD
:1002E00001039B0703D009E008C9121F08C0042AB4
:1002F000FAD203E011F8013B00F8013B521EF9D29B
:100300007047D2B201E000F8012B491EFBD27047C2
:100310000022F6E710B513460A4604461946FFF7D1
:10032000F0FF204610BD00000FB400B58DB010A93D
:1003300009900B9000914FF0FF300A9000200C9034
:1003400005480690054807906A4609A80F9900F0ED
:10035000F9FB0DB05DF814FB610B00087F0B000882
:100360002DE9FF5FD2E901A74FF000089169994696
:100370001446DDF838B0464601988847054659EAE4
:100380000B0005D009E0A169761C01988847054655
:10039000216A284688470028F5D1681C03D05FEA07
:1003A000CA7005D015E04FF0FF3004B0BDE8F09FF3
:1003B0002068011D2160D0F800800AE05FEACA7061
:1003C00001D108F8015BA169761C7F1E019888475E
:1003D0000546002F1ADD681C18D0B9F1000F0DD0AA
:1003E000E81705EBD060421120F01F0059F82210E9
:1003F0002A1A012090400142E0D107E0BBF1000F32
:10040000DCD1216A284688470028D7D0E1690198C5
:100410008847BBF1000F07D1002E05DD5FEACA70E7
:1004200002D1002188F80010A068B84203DDBBF1BA
:10043000000F03D017B16FF00100B6E73046B4E704
:10044000F0B480EA0102D40F4200B2EB410F02D2B5
:100450000246084611464A0042D0C30DDDB2C1F340
:10046000C752AD1A202D35DAC1F3160141F400024E
:1004700004B15242C5F1200602FA06F12A411044A5
:10048000B3EBD05F23D0C4B1012DA0EBC35009DC86
:10049000F0BC4FF0004202EAC352DBB200F50000AC
:1004A00000F0E2BB400000F1807000EBC350A0F10F
:1004B000807040EAD170490009E0490841EAC07102
:1004C000A0EBC35000F50000400800EBC350F0BCA7
:1004D00000F0C1BB6142012202EB4101001BF6E7C3
:1004E000F0BC704781F00041AAE780F00040A7E728
:1004F00080EA010210B502F00043400022D04A0019
:100500001FD0010E01EB1261C0F35600C2F3560278
:1005100040F4000042F40002A0FB022000047F39F6
:10052000140400D0401C50EA124001D44000491E7F
:10053000C2B20C0604EBD010401C4008802A02D046
:1005400003E0002010BD20F00100002900DA0020A7
:10055000184310BD30B480EA010202F0004530F0CB
:10056000004221F0004013D090B1C30DD40DC2F36E
:100570001601C0F31600E41A41F4000140F4000231
:100580007D34914201D3641C00E04900002C02DA62
:1005900030BC002070474FF400000023914201D38B
:1005A000891A034340084FEA4101F7D151B1914202
:1005B00002D14FF0004105E002D24FF0010101E00D
:1005C0006FF0010103EBC450284430BC00F043BB82
:1005D0002DE9FE4F804681EA0300C00F0C460090D3
:1005E00021F0004123F00045B8EB0200A94105D2FB
:1005F0004046214690461C460B46024623F00040EA
:10060000104347D0270DC7F30A00C3F30A510290E5
:10061000401A019040286BDAC3F3130040F4801BAA
:100620000098924620B10023D2EB030A63EB0B0B38
:1006300001985946C0F14002504600F05CFA064667
:100640000D4650465946019A00F064FA10EB080036
:100650006141002487EA115284EAE7731A4340D0CB
:10066000009A62B3019A012A4FEA075215DC001B77
:1006700061EB02014FF0004202EA0752CDE900426D
:10068000001C41F5801132462B4600F02AFB03B0D6
:10069000BDE8F08F40462146F9E7001B61EB0201FF
:1006A000001C41F5801300185B412018A2F50017CB
:1006B00047EB030140EAD570B6196D4111E06D08B2
:1006C0004FEA360645EAC0754FEA0752001B61EB58
:1006D0000201001C41F5801149084FEA3000001961
:1006E000514132462B4603B0BDE8F04F00F0EABA64
:1006F0000098012240000023D0EB020263EBE0737C
:10070000009821464FEAE074B8EB000061EB040169
:10071000E9E783F000435BE781F0004158E72DE90A
:10072000FE4F81EA030404F0004421F000410094EC
:100730004FF0000B23F0004350EA01045ED052EA70
:1007400003045BD0C3F30A54C1F30A552C44A4F24A
:10075000F3340194A0FB0254C1F3130141F480115E
:10076000C3F3130343F4801301FB024400FB034E65
:10077000840A970A44EA815447EA8357A4FB07682E
:1007800002958D0A05FB07854FEA932C04FB0C5458
:100790002705029D4FEA065847EA1637B5EB0805CC
:1007A0006EEB070C870E920E47EA811742EA83121E
:1007B000A7FB0201B6EB0B0164EB00042B0D43EA2F
:1007C0000C335E1844EB1C50DA465146E7FB02013D
:1007D000C5F313044FEA0B3343EA14534FEA0432D0
:1007E000019C43EA0603A4F10C040294009CCDE9A9
:1007F00000B400F076FA03B0BDE8F08F00200146A7
:10080000F9E72DE9F04D81EA030404F0004B21F0F3
:10081000004514464FF0000A23F0004150EA05025B
:1008200020D054EA01021DD0C5F30A570246C5F391
:100830001303C1F31300C1F30A5640F4801543F4C7
:100840008013A7EB0608101BD64608F2FD3873EBA1
:10085000050002D308F1010801E092185B41B8F1EC
:10086000000F03DA00200146BDE8F08D00204FF4B0
:100870008011064684460EE0171B73EB050705D36F
:10088000121B63EB050306434CEA010C49084FEACF
:10089000300092185B4150EA0107EDD152EA0300A3
:1008A00012D082EA040083EA0501084305D0101B38
:1008B000AB4106D20122002306E000224FF00043A4
:1008C00002E06FF0010253101AEB06004CEB0851E6
:1008D00010EB0A0041EB0B01BDE8F04D00F0F2B95E
:1008E000C10F80EAE0700844CA079623002100F097
:1008F000BBB996230022114600F0B6B9F0B4CA176E
:10090000CB0F50405140C61841F100054FEAC37269
:10091000314628004FF0960303D0B623F0BC00F018
:10092000A3B930460021F9E700F0004220F0004072
:10093000C10DC0F3160040F400007F2901DA002049
:100940007047962903DCC1F19601C84001E0963951
:100950008840002AF4D04042704720F00040C10D8A
:10096000C0F3160040F400007F2901DA0020704730
:10097000962903DCC1F19601C8407047963988403A
:10098000704700F0004230F000400AD0C10D01F580
:100990006071C0F3160042EA0151C20840071143DA
:1009A000704700200146704730B5041E71F1000405
:1009B00004DB4FF00044404264EB0101141E73F16C
:1009C000000405DB1C464FF00043524263EB040376
:1009D0008B4208BF824230BD30B5041E71F1000465
:1009E00004DB4FF00044404264EB0101141E73F13C
:1009F000000405DB1C464FF00043524263EB040346
:100A0000994208BF904230BD01F0004330B421F05C
:100A1000004150EA010206D00A0DA2F56072C1F34E
:100A20001301002A02DC30BC00207047440F44EA66
:100A3000C104C100E01830BC00EBC25000F00BB99B
:100A4000002801DBC0F10040002901DBC1F10041B9
:100A500081427047002801DBC0F10040002901DB22
:100A6000C1F100418842704730B50B460146002075
:100A70002022012409E021FA02F59D4205D303FA60
:100A800002F5491B04FA02F52844151EA2F10102E1
:100A9000F1DC30BD2DE9F05F0546002092469B4613
:100AA00088460646814640241BE028464146474684
:100AB0002246FFF704FC53465A46C01A914110D310
:100AC00011461846224600F016F82D1A67EB010869
:100AD0004F4622460120002100F00DF817EB0009D7
:100AE0004E41201EA4F10104DFDC484631462A466F
:100AF0004346BDE8F09F202A04DB203A00FA02F1C9
:100B0000002070479140C2F1200320FA03F31943FB
:100B100090407047202A06DBCB17203A41FA02F0BA
:100B200043EAE07306E041FA02F3D040C2F120024A
:100B300091400843194670470268114413780160D8
:100B400018467047D160044951610449116200217F
:100B50001161114600F044B9390B0008D50D0008A9
:100B6000426842B1016811F8013B23B1521EC0E94D
:100B70000012184670470121C160881E7047426804
:100B80005AB1C368016843B983688B4205D0491ED6
:100B9000521CC0E90012002070474FF0FF30704730
:100BA0000FB4002300B589B00CA900910B996FF028
:100BB0000042CB601E4B06931E4B07930423CDE9E6
:100BC00001321D4A089202466B46002000F032FBBB
:100BD00009B05DF814FB70B586B006464FF0FF30E3
:100BE0000091CDE90101002015460C4604903246E3
:100BF000694604A8FFF7D4FF02460498211825B1DE
:100C000008B1084600E020462860049800280DD06E
:100C1000002A02DD0098884208D0081B0094CDE924
:100C200001043246694604A8FFF7BAFF06B070BD5A
:100C3000610B00087F0B0008D50D00087CB5002370
:100C4000CDE9003305466846FFF7C5FF69462846EB
:100C500006F0A0F97CBD0029A8BF7047401C4900E0
:100C600008BF20F00100704710B4B0FA80FC00FA11
:100C70000CF050EA010404BF10BC704749B1CCF13C
:100C8000200421FA04F411FA0CF118BF01212143C8
:100C90000843A3EB0C01CB1D4FEA00614FEA102083
:100CA00042BF002010BC704700EBC3501044002925
:100CB000A4BF10BC7047401C490008BF20F00100D1
:100CC00010BC704710B5141E73F1000408DA401C04
:100CD00041F1000192185B411A4301D120F001005B
:100CE00010BD2DE9F04D92469B4611B1B1FA81F24B
:100CF00002E0B0FA80F220329046FFF7FCFE044694
:100D00000F4640EA0A0041EA0B0153465A4608439F
:100D100013D0114653EA010019D0C8F140025046E1
:100D2000FFF7CDFA05460E46504659464246FFF7B4
:100D3000E2FE084305D0012004E020463946BDE824
:100D4000F08D0020054346EAE0762C4337430A98AD
:100D50006305E40AA0EB08000022FD0A44EA4754B8
:100D60000A3002D500200146E9E701051019694162
:100D7000DDE9084500196941BDE8F04DA2E7C1F37E
:100D80000A52C1F3130140F2FF3341F480119A4239
:100D900002DA00200146704740F233439A42A2F241
:100DA000334202DC5242FFF78ABAFFF7A4BE0000CA
:100DB000064C074D06E0E06840F0010394E80700A8
:100DC00098471034AC42F6D3FFF7B6F9889F000875
:100DD000A89F0008C0B24FF4F05100F047BB0000DC
:100DE0002DE9F34F8BB04FF0000801F10C000C46D9
:100DF0004FF0010B46460DF1080A0190626901218E
:100E000001989047051E2DD0252D2CD0216A8847AA
:100E1000C0B16269012101989047216A8847002882
:100E2000F7D1411E62690198904700E0761CA169E4
:100E30000B988847216A88470028F7D1E1690B9809
:100E40008847DBE7A1690B9888470746A84201D18C
:100E5000761CD3E7E1690B9888477F1C02D1B8F173
:100E6000000F6FD046E1002762693D463946019880
:100E700090472A2804D162690121019890470125F1
:100E8000DFF884926269012101989047A0F1300156
:100E90000A290AD24F45E5DC07EB870100EB410741
:100EA000303FDFD445F01005ECE7E90601D46FF0E0
:100EB00000476C280AD04C2814D0682815D06A281E
:100EC0000DD074281CD07A281AD01DE06269012147
:100ED000019890476C2802D045F0040514E045F0D5
:100EE00002050DE045F020050AE062690121019844
:100EF0009047682802D045F0080505E045F40065F4
:100F00006269012101989047C4E9015765283DD0E5
:100F100019DC58287AD00CDC452837D004DC252889
:100F200026D0412831D131E046282FD047282CD176
:100F30002CE05B2877D0612828D063287CD06428F7
:100F400023D15AE0D0E06F2848D008DC66281DD0B5
:100F500067281BD0692821D06E2816D127E0702879
:100F600045D0732868D0752847D078280DD14DE03A
:100F7000A1690B988847054625283FF469AFE169C8
:100F80000B9888476D1C3FF46AAFB3E023466A466E
:100F90006FF001000B9900F04DF99EE045F0400024
:100FA0006060A80723464FF0000236D43EE0E80711
:100FB0007FF447AF2068011D21600068290501D535
:100FC00006701BE7290701D5068017E7A90703D597
:100FD000F117C0E9006111E706600FE745F0400036
:100FE0006060A80723464FF0080216D41EE040F6C2
:100FF0000E0125EA0100606016E045F040006060E7
:10100000A80723464FF00A0207D40FE045F040003E
:101010006060A80708D5234610226FF001000B99E5
:10102000AFF3008059E007E0234610226FF0010083
:101030000B99AFF3008050E04FF000094F464B464C
:10104000632802D05B2806D040E0E80601D40120E6
:10105000A06001273AE062690121019890475E286B
:1010600005D14FF00109626949460198904721690D
:1010700039B900210A46534643F82120491C082962
:10108000FADBB0B3216969B9C11700EBD162531122
:101090000AEB830122F01F02821A01200B689040A4
:1010A00003430B6062690121019890475D28E8D1F4
:1010B000B9F1000F09D00020514651F82020D24349
:1010C00041F82020401C0828F7DB02AB224600979D
:1010D0006FF001000B99FFF743F900280CDA401C70
:1010E00008D1BBF1000F05D04FF0FF300DB0BDE8C7
:1010F000F08FFFE74046F9E7E90701D108F1010861
:1011000006444FF0000B79E6CCCCCC0C2DE9FF4F18
:10111000087883B09946FF2805D0491C2D2804D0B3
:101120000024002008E000200BE00124F9E700EB98
:10113000800003EB4000491C0B78FF2BF7D104B172
:10114000404200230293147819461D462D2C01D0ED
:101150002B2C04D1521C2D2C13D000240294AA460F
:101160001478FF2C0FD00A25A3FB057801FB05811D
:101170004FF0000C03FB0C11521CE3194AEB010168
:10118000EEE70124EAE7814453EA010002D019F5B1
:10119000C87F06DA03980021C0E9001107B0BDE856
:1011A000F08F0025AE4E2F46DFF8B882184600F0CB
:1011B00071F9CDE90001B9F1000002DAC9F10004CA
:1011C00000E004460023A74A1AEB030B42EB045A43
:1011D00012E0E00707D02A46334638464146FFF77B
:1011E0009EFA074688462A46334610461946FFF7B8
:1011F00096FA05460E466410002CEAD1DDE900019E
:10120000B9F1000F5A46534606DAFFF7FAFA3A46A2
:101210004346FFF7F6FA05E0FFF781FA3A46434600
:10122000FFF77DFA029A0AB181F00041039AC2E900
:101230000001B3E72DE9FF4F1F468DB0D7E9014606
:101240004FF0FF382E2045464FF000090B90B9694A
:101250006D1C0E988847396A824688470028F6D167
:10126000BAF1FF3F0AD024F4D064002E11DDBAF1A8
:101270002B0F08D0BAF12D0F0BD102E0404611B070
:101280008DE744F48064B9696D1C0E9888478246E6
:10129000761E6946600501D52D2000E02B208DF8D3
:1012A000000001F1010B0DF1200809E0B9696D1C86
:1012B0000E98884782460F9844F40074761E0560A5
:1012C000002E02DDBAF1300FF0D00B998A453ED1E5
:1012D00044F0800406E00F99681CA9F1010944F468
:1012E00000740860B9696D1C761E0E9888478246A6
:1012F0003028F0D02BE00B998A4505D1200603D485
:1013000044F08004761E18E0504605F0A7FF08B3AD
:101310000DF11301761E44F400748B4508D2AAF136
:1013200030000BF8010B200607D5A9F1010003E0FE
:10133000200602D409F101008146A00502D50F99CB
:10134000681C0860B9696D1C0E9888478246002E9B
:10135000D1DC53E0002E51DDBAF1650F02D0BAF1B5
:10136000450F4BD1A00549D5B9696D1C24F44074D3
:10137000761E0E9888478246002E0CDD2B2804D05E
:10138000BAF12D0F07D144F48074B9696D1C0E9821
:1013900088478246761EE00501D52D2100E02B21ED
:1013A00008F8011BCDF82C8021E00DF12901761EF3
:1013B00044F4007488450CD2AAF1300010F0FF000C
:1013C00088F8000002D10B99884509D908F1010875
:1013D00006E0E00501D5244801E042F20F708146A5
:1013E000B9696D1C0E98884782460F980560002EDB
:1013F00004DD504605F032FF0028D6D1F9690E9879
:101400008847FF208BF8000088F800000020069035
:1014100007904B466A4608A906A8FFF777FEA00585
:1014200002D46FF001002AE714F0240F0AD0E0077D
:1014300014D1DDE906123868031D3B600068C0E97D
:1014400000120BE0DDE90601FFF7DEFA0146E007D6
:1014500004D13868021D3A600068016028460EE732
:10146000000014400000F03FF1D8FFFF7F2801D9B1
:10147000002208E0064A02EB5002C007127800D1B1
:10148000120902F00F02012090400840704700004E
:10149000319F00080EB540F2334202920022CDE99E
:1014A00000221346FFF71DFC03B000BD002070476B
:1014B00070B521F0004303430CD0C1F30A5500245A
:1014C000D5EB040564EB0403D617AD1AB34102DB78
:1014D0000020014670BD201841EB025170BD70B56F
:1014E0008C1810F8015B15F0070301D110F8013BCF
:1014F0002A1106D110F8012B03E010F8016B01F856
:10150000016B5B1EF9D12B0705D40023521E0DD4AD
:1015100001F8013BFAE710F8013BCB1A921C03E0FB
:1015200013F8015B01F8015B521EF9D5A142D8D333
:10153000002070BD10B508F0A7FB002010BD000012
:1015400090B007F051FF044607F08CFF07F05EFBF8
:101550003AE04FF0FF3318220AA91C48006807F050
:1015600035F900282DD11AA10AA807F00FFD00BBFC
:1015700008E00023202202A91948006807F026F994
:1015800000B100E0F5E700BF05F038F915A005F05F
:10159000D5FC06F0ADFC07F027FF044607F062FF1C
:1015A0001648006807F0F6FE06F0B2FC07F02EFBC6
:1015B00007E0DDE90E01CDE900010AA80FC804F03B
:1015C00037FE012000F077F9C3E700003400002067
:1015D00048414E444C4520535441525400000000B1
:1015E0003800002053776974636820746F20484185
:1015F0004E444C45204D6F64650D0A0010000020DC
:101600002DE9F04704460E4615466561A661314650
:101610002846FEF767FFE063D4E90F01FEF762FF9B
:1016200080462168FEF764FF6062E16B6068FEF748
:101630005FFFA062616BA163216B61634FF080402B
:10164000216CFEF755FF8146E16BFEF74EFF8046A9
:10165000616CFEF7F5FE2063216BA068FEF748FF82
:10166000E062D4E90901FEF7EBFE8146E16AFEF78C
:10167000E7FE8046FFF758F907463846FFF730F98E
:101680008046E169FEF7DCFE2062206AE061216CA1
:101690006164E16B2164206ABDE8F08710B50446FF
:1016A0002CB96B2108A000F081F900BFFEE70021F2
:1016B000A163616321632162E162A162616261648D
:1016C0002164E16310BD00002E2E5C4273705C410A
:1016D0006C676F5C5372635C616C676F5F706964A9
:1016E0002E6300000A6802604A6842608A6882606D
:1016F000704700002DE9FC5F0025002400264A48C1
:10170000D0F86C71D0F8688148480068019048486A
:10171000394602684748FFF773FF0546444841468B
:1017200042684548FFF76CFF044644490888FFF7C4
:10173000E0F882463146FEF7D5FE8146FFF70DF907
:101740003E4908804888FFF7D4F882463146FEF7C4
:1017500077FE8146FFF701F9384948808888FFF70E
:10176000C8F882463146FEF76BFE8146FFF7F5F872
:1017700032498880C888FFF7BCF882463146FEF7B8
:10178000B1FE8146FFF7E9F82C49C88084F0004B90
:1017900029465846FEF754FE824628490889FFF735
:1017A000A8F851460090FEF74BFE8146FFF7D5F8AA
:1017B0002249088184F0004B29465846FEF792FEE4
:1017C00082461E494889FFF794F851460090FEF77B
:1017D00037FE8146FFF7C1F818494881294620465F
:1017E000FEF72EFE824615498889FFF782F8834668
:1017F0005146FEF725FE8146FFF7AFF80F49888175
:1018000029462046FEF76EFE82460C49C889FFF73E
:1018100070F883465146FEF713FE8146FFF79DF8A8
:101820000649C881BDE8FC9F9804002048000020BC
:10183000AC0E0020B801002000020020000D0020A6
:1018400000BFFEE730B590F840500124AC40C56BB6
:101850006C60046863604468102C04D10468A26062
:101860000468E16003E00468A1600468E26030BDE0
:101870009AB0002418E04FF0FF310C48006807F0E0
:10188000C1FA70B901A90A4800F03EFAC4B244B1E5
:1018900001A804F06BFA2246002101A806F02EFFF1
:1018A0000024012000F007F8E5E700002C000020EC
:1018B00048020020704710B50446204607F060FD3E
:1018C00010BD32280AD2002105E0002200E0521C9F
:1018D000082AFCDB491C8142F7D319E000EBC00267
:1018E0004FF0E0235A6100229A6101221A6100BF81
:1018F0004FF0E022116901F001021AB101F48032C7
:10190000002AF5D000224FF0E0231A619A6100BF4F
:101910007047000070B505460E4600242BE004EB2E
:10192000440105EBC10002F0A5FE04EB440105EB08
:10193000C10002F080FF04EB440005EBC0004068EA
:101940000E4988420FD004EB440005EBC00040680C
:101950000B49884207D004EB440005EBC000406807
:101960000849884205D104EB440105EBC10002F0AF
:10197000E9FE601CC4B2B442D1DB70BD000021108E
:10198000000011100000311010B50446228891B2F9
:101990000022206900F05AFC10BD10B504462288D0
:1019A00091B20122206900F051FC10BD70B50446CF
:1019B0000D4604A005F0C2FA2A46214606A005F00D
:1019C000BDFA70BD2D3E48617070656E2045727223
:1019D0006F722121210D0A002D3E4572726F722017
:1019E000506172616D65746572732056616C7565C6
:1019F0003A2066696C65202573206F6E206C696ED5
:101A0000652025640D0A000010B500F02BFC02F0E3
:101A100019FF02F04AFF10BD10B50446022120460E
:101A2000FFF778FF10BD2DE9F04107460D46002471
:101A3000384602F076FF002615E0384602F05FFFD8
:101A4000022002F045FF384602F050FF6006040E07
:101A5000384602F043FF08B1601CC4B2012002F016
:101A600037FF701CC6B2082EE7DB1DB1384602F006
:101A700088FF02E0384602F09CFF2046BDE8F08176
:101A800070B506460C46304602F067FF304602F05D
:101A900036FF00251CE004F0800018B1304602F04B
:101AA00037FF02E0304602F04FFF6006040E0220CE
:101AB00002F00EFF304602F019FF022002F008FF8C
:101AC000304602F01CFF022002F002FF681CC5B283
:101AD000082DE0DB70BD10B50446204602F03DFF46
:101AE000204602F015FF204602F000FF042002F01D
:101AF000EFFE204602F028FF042002F0E9FE204617
:101B000002F0FDFE10BD10B50446204602F025FF90
:101B1000204602F0F4FE204602F016FF042002F0F8
:101B2000D7FE204602F0E2FE204602F0F1FE04203D
:101B300002F0CEFE10BD70B505460024284602F026
:101B4000F0FE284602F0E4FE012002F0C1FE284625
:101B500002F0CCFE012002F0BBFE08E0601CC4B223
:101B6000FA2C04DD2846FFF7CEFF012070BD284681
:101B700002F0B4FE0028F1D1284602F0C0FE002099
:101B8000F4E7000070B504460D46606E32281BD1A4
:101B900094F86C0030B1042807D0082808D00C282D
:101BA0000CD108E0206845630DE0206885630AE0F9
:101BB0002068C56307E02068056404E0D42103A021
:101BC000FFF7F4FE00BF00BF70BD00002E2E5C4486
:101BD00072697665725C5372635C6472765F686189
:101BE0006C5F70776D2E630070B505460E4600245D
:101BF00013E004EB041105EBC10003F0B7F804EBAC
:101C0000041105EBC10003F02BF904EB041105EB03
:101C1000C10003F03FFA601CC4B2B442E9DB70BDFE
:101C200010B5044603F092FA204603F04BFD20461F
:101C300003F024FB204603F093FB204603F0F0FA68
:101C4000204603F085FA204603F014FC204603F0FA
:101C5000C5FC204603F01AFD94F8C900012819D1EB
:101C600000BF04F184006063A820045100BFDE219E
:101C7000085B05F0CBFFE02108512068C06840F008
:101C800010002168C860DE20025BE0200159204678
:101C900001F008F994F8C80001280BD100BF04F145
:101CA00040002063646600BFEA21085B05F0AEFFD8
:101CB000EC21085110BD38B5044620680068C0F317
:101CC000001000B300BF0020009020680068009062
:101CD00020684068009000BF00BF204601F074F803
:101CE000DE20005B616B09684968401A81B2DC2024
:101CF00001530121E5200155DE20025BE02001595E
:101D0000204601F0CFF838BD70B504460E46E520F8
:101D1000005D012801D0002070BDDC20055B691C3E
:101D20003046FEF7F5FAE02001592A463046FEF724
:101D3000D6FA0021E52001552846EDE770B50446A6
:101D40000D461646FF2332462946204601F00EF97D
:101D500070BD7047704700000648D0F8680106491A
:101D600048600448D0F86C0108600248D0F870015F
:101D70008860704798040020AC0E002001460022C5
:101D800091F82100022808D00420886300BF0020B9
:101D900081F8200000BF012070470868006820F02B
:101DA0000E000B6818600868006820F001000B68DE
:101DB000186091F8403001209840CB6B58600120AA
:101DC00081F8210000BF002081F8200000BF1046EC
:101DD000E2E700000146002209B9012070471E4BCE
:101DE000086898420BD21D4B0868C01A1423B0FB38
:101DF000F3F08000086419480838C8630AE0164BFD
:101E00000868C01A1423B0FBF3F08000086412487D
:101E10000838C863022081F821000868026843F688
:101E2000F0708243D1E901031843CB6818430B6972
:101E300018434B6918438B691843CB691843024315
:101E40000868026000208863012081F821000020DA
:101E500081F8200000BFC1E70804024008000240EA
:101E60002DE9F04104460D4616461F464FF0000886
:101E700000BF94F82000012802D10220BDE8F081C3
:101E8000012084F8200000BF94F8210001282CD103
:101E9000022084F821000020A0632068006820F060
:101EA0000100216808603B46324629462046FFF77C
:101EB000C9FCE06A30B12068006840F00E0021687B
:101EC00008600BE02068006820F0040021680860CA
:101ED0002068006840F00A002168086020680068F7
:101EE00040F001002168086006E000BF002084F88F
:101EF000200000BF4FF002084046BFE72DE9F84739
:101F0000024600239C467BE14FF0010808FA03F4E7
:101F1000D1F8008008EA0400A0427DD1DFF8F4A2E5
:101F2000D1F80480A8EB0A09D0453AD014DCB8F106
:101F3000030F50D009DCB8F1000F31D0B8F1010F18
:101F40001CD0B8F1020F49D120E0B8F1110F18D020
:101F5000B8F1120F42D11EE0B9F5881F25D006DC7A
:101F6000B9F5803F20D0B9F5801F37D11AE0B9F517
:101F7000001F18D0B9F5041F30D117E0D1F80CC0FC
:101F80002DE0D1F80C8008F1040C28E0D1F80C8089
:101F900008F1080C23E0D1F80C8008F10C0C1EE0CD
:101FA00000BF00BF00BF00BF00BF00BFD1F8088066
:101FB000B8F1000F02D14FF0040C0BE0D1F808800B
:101FC000B8F1010F03D14FF0080C146102E04FF09B
:101FD000080C546103E04FF0000C00E000BF00BFAC
:101FE000FF2801D8904601E002F104084646FF2888
:101FF00002D84FEA830803E0A3F108084FEA8808F3
:102000004746D6F800804FF00F0909FA07F928EA89
:1020100009080CFA07F900E07AE048EA0908C6F86E
:102020000080D1F8048008F08058B8F1805F6FD14B
:1020300000BFDFF8E481D8F8188048F00108DFF825
:10204000D891C9F81880C846D8F8188008F0010857
:10205000CDF8008000BF00BF4FEAB9384FEA9309BE
:1020600058F829504FEA83784FEA18794FF00F0853
:1020700008FA09F825EA0805DFF8A081424502D1EF
:102080004FF0000824E0DFF89881424502D14FF07C
:1020900001081DE0DFF88C81424502D14FF00208B3
:1020A00016E0DFF88481424502D14FF003080FE0CB
:1020B000DFF87881424502D14FF0040808E0DFF8EC
:1020C0007081424502D14FF0050801E04FF006084B
:1020D0004FEA83794FEA197908FA09F848EA0505C1
:1020E000DFF850814FEA930948F82950D1F804806D
:1020F00008F48038B8F5803F0BD1DFF83C81D8F880
:10210000008048EA0008DFF83091C9F800800AE052
:1021100075E0DFF82481D8F8008028EA0008DFF8AD
:102120001891C9F80080D1F8048008F40038B8F597
:10213000003F0ED1DFF8008108F10408D8F80080D4
:1021400048EA0008DFF8F09009F10409C9F80080B6
:102150000DE0DFF8E48008F10408D8F8008028EAF0
:102160000008DFF8D49009F10409C9F80080D1F81B
:10217000048008F48018B8F5801F0ED1DFF8B8800D
:1021800008F10808D8F8008048EA0008DFF8A890AD
:1021900009F10809C9F800800DE0DFF89C8008F11A
:1021A0000808D8F8008028EA0008DFF88C9009F1C8
:1021B0000809C9F80080D1F8048008F40018B8F5BF
:1021C000001F0ED1DFF8708008F10C08D8F80080ED
:1021D00048EA0008DFF8609009F10C09C9F80080AE
:1021E0000DE0DFF8548008F10C08D8F8008028EAE8
:1021F0000008DFF8449009F10C09C9F800805B1C65
:10220000D1F8008028FA03F8B8F1000F7FF47CAE13
:10221000BDE8F887000011100010024000080140DE
:10222000000C014000100140001401400018014062
:10223000001C014008000140000401400246936870
:102240000B400BB1012000E0002070470AB1016192
:1022500001E00B040361704701480068704700000B
:10226000900E002010B50848006840F010000649A4
:102270000860032000F0D2F8002000F007F800F01A
:102280002BF8002010BD00000020024070B504466D
:102290000E4800784FF47A71B1FBF0F00C490968F0
:1022A000B1FBF0F5284600F049FC08B1012070BDF3
:1022B000102C07D200222146501E00F071F805486C
:1022C000046001E00120F2E70020F0E7980E002012
:1022D0009C0E0020940E002008B5032000F09EF80C
:1022E00000BF2548806940F0010023498861084605
:1022F000806900F00100009000BF00BF00BF0846E9
:10230000C06940F08050C8610846C06900F0805044
:10231000009000BF00BF002211466FF00B0000F0DC
:102320003FF8002211466FF00A0000F039F8002251
:1023300011466FF0090000F033F800221146501FDB
:1023400000F02EF800221146101F00F029F800229C
:102350000F21901E00F024F800220F21501E00F0E3
:102360001FF800BF0549486820F0E06040F00070A9
:10237000486000BF08BD000000100240000001409E
:1023800001460846002809DB00F01F0301229A409D
:1023900043099B0003F1E023C3F8002100BF70470D
:1023A0002DE9F05F80460D461646002704F0D6FD65
:1023B000074639462A46334601F00700C0F1070AAE
:1023C000BAF1040F02D94FF0040A01E0C0F1070A84
:1023D000D14600F1040ABAF1070F02D24FF0000A09
:1023E00001E0A0F1030AD4464FF0010A0AFA09FA03
:1023F000AAF1010A0AEA020A0AFA0CFA4FF0010BE2
:102400000BFA0CFBABF1010B0BEA030B4AEA0B04D2
:102410002146404604F0AAFDBDE8F09F00BF00F051
:102420000702064B19684FF6FF031940044B0B4394
:1024300043EA0221014B196000BF70470CED00E038
:102440000000FA0570B504460D460CB9012070BDB8
:102450005A48006800F00700A8420ED257480068AA
:1024600020F007002843554908600846006800F03E
:102470000700A84201D00120E9E7207800F002001F
:1024800002281DD1207800F00400042805D14C4812
:10249000406840F4E0604A494860207800F0080055
:1024A000082805D14648406840F4605044494860D7
:1024B0004348406820F0F000A16808434049486064
:1024C000207800F0010078B36068012806D13C480C
:1024D000006800F4003090B90120B8E76068022875
:1024E00006D13748006800F0007040B90120AEE71F
:1024F0003348006800F0020008B90120A7E730481F
:10250000406820F00300616808432D494860FFF7E8
:10251000A3FE064609E0FFF79FFE801B41F28831CB
:10252000884202D9032092E707E02548406800F07E
:102530000C006168B0EB810FEDD12048006800F01D
:102540000700A8420ED91D48006820F00700284364
:102550001A4908600846006800F00700A84201D048
:10256000012074E7207800F00400042807D1144803
:10257000406820F4E060E168084311494860207831
:1025800000F00800082808D10D48406820F4605089
:10259000216940EAC1000A49486000F03FF8084953
:1025A0004968C1F30311074A515CC84006490860F5
:1025B00006480068FFF76AFE002048E70020024056
:1025C00000100240199F00089C0E0020940E00206D
:1025D00001480068704700009C0E002000B5FFF71E
:1025E000F7FF04494968C1F30221034A515CC8401E
:1025F00000BD000000100240299F000800B5FFF751
:10260000E7FF04494968C1F3C221034A515CC8404D
:1026100000BD000000100240299F0008F0B585B001
:102620000FF26C0C9CE8E01001A8A0E8E0101CA5DB
:102630002D68009500210022002300240020194D60
:10264000696801F00C05F5B1042D02D0082D19D1EF
:1026500001E0154819E001ADC1F38346AC5D01F41A
:10266000803555B10F4D6D68C5F340451DF8052007
:102670000D4D6543B5FBF2F302E00C4D04FB05F391
:10268000184602E000BF084800BF00BF05B0F0BD1B
:1026900002030405060708090A0B0C0D0E0F1010A3
:1026A000010200000010024000127A0000093D0003
:1026B000F8B504460CB90120F8BD207800F00100FF
:1026C000002878D0F848406800F00C0004280CD0AE
:1026D000F548406800F00C00082811D1F248406825
:1026E00000F48030B0F5803F0AD1EF48006800F474
:1026F000003000285FD0606800285CD10120DBE753
:1027000000BF6068B0F5803F06D1E748006840F43C
:102710008030E549086028E0606858B9E248006800
:1027200020F48030E04908600846006820F48020EA
:1027300008601AE06068B0F5A02F0BD1DA48006895
:1027400040F48020D84908600846006840F4803092
:1027500008600AE0D448006820F48030D24908605C
:102760000846006820F48020086000BF606888B1D7
:10277000FFF772FD054606E0FFF76EFD401B64287B
:1027800001D9032098E7C848006800F40030002809
:10279000F2D010E0FFF760FD054606E0FFF75CFDB4
:1027A000401B642801D9032086E7BF48006800F475
:1027B00000300028F2D1207800F00200022857D122
:1027C000B948406800F00C0050B1B748406800F0CC
:1027D0000C00082818D1B448406800F4803098B93B
:1027E000B148006800F0020020B12069012801D042
:1027F000012061E7AC48006820F0F800616940EA18
:10280000C100A949086033E02069E8B10120A74967
:102810000860FFF721FD054606E0FFF71DFD401BA0
:10282000022801D9032047E79F48006800F0020012
:102830000028F2D09C48006820F0F800616940EA66
:10284000C1009949086013E0002098490860FFF72B
:1028500003FD054606E0FFF7FFFC401B022801D9F7
:10286000032029E79048006800F002000028F2D118
:10287000207800F0080008282DD1A069B8B1012007
:102880008B490860FFF7E8FC054606E0FFF7E4FC2B
:10289000401B022801D903200EE78348406A00F05C
:1028A00002000028F2D0012001F09CFE13E000207D
:1028B0007F490860FFF7D0FC054606E0FFF7CCFC37
:1028C000401B022801D90320F6E67748406A00F051
:1028D00002000028F2D1207800F00400042873D10F
:1028E00000277148C06900F0805070B900BF6E4881
:1028F000C06940F080506C49C8610846C06900F06A
:102900008050009000BF00BF01276A48006800F4B3
:102910008070B0B96748006840F48070654908600D
:10292000FFF79AFC054606E0FFF796FC401B64287B
:1029300001D90320C0E65F48006800F480700028D9
:10294000F2D000BFE068012806D15748006A40F085
:1029500001005549086227E0E06858B95248006A0A
:1029600020F00100504908620846006A20F0040087
:10297000086219E0E06805280BD14B48006A40F076
:102980000400494908620846006A40F001000862F4
:102990000AE04548006A20F0010043490862084601
:1029A000006A20F00400086200BFE068A0B1FFF7F1
:1029B00053FC054609E0FFF74FFC401B41F288310C
:1029C000884202D9032077E622E03748006A00F007
:1029D00002000028EFD012E0FFF73EFC054608E0B9
:1029E000FFF73AFC401B41F28831884201D90320AD
:1029F00062E62D48006A00F002000028F0D1012FA5
:102A000005D12948C06920F080502749C86100BF1E
:102A1000E069C8B32448406800F00C00082860D082
:102A2000E069022848D1002020490866FFF714FC1D
:102A3000054606E0FFF710FC401B022801D90320E1
:102A40003AE61948006800F000700028F2D1206AC8
:102A5000B0F5803F07D11448406820F40030A168E9
:102A6000084311494860D4E9080108430E49496800
:102A700021F4741108430C49486001200B49086691
:102A8000FFF7EAFB054607E03DE0FFF7E5FB401BEB
:102A9000022801D903200FE60348006800F0007007
:102AA0000028F2D02FE00000001002400000424257
:102AB0008004424200700040002014490866FFF77D
:102AC000CBFB054606E0FFF7C7FB401B022801D9F8
:102AD0000320F1E50E48006800F000700028F2D1F4
:102AE00011E0E069012800D1E6E50948466806F4EE
:102AF0008031206A814204D106F47011606A8142FB
:102B000001D00120D8E50020D6E5000000004242B7
:102B100000100240042808D14FF0E021096941F07B
:102B200004014FF0E022116107E04FF0E021096954
:102B300021F004014FF0E0221161704770B50446A6
:102B40002546681EB0F1807F01D301200FE0681E8A
:102B50004FF0E02148610F214FF0FF3004F006FAFA
:102B600000204FF0E021886107200861002070BD3F
:102B700070B504460D46164600BF94F83C00012887
:102B800001D1022070BD012084F83C0000BF36B1A5
:102B9000042E1BD0082E31D00C2E5ED145E02946E4
:102BA000206803F007F82068806940F00800216879
:102BB00088612068806920F00400216888612068AD
:102BC0008069296908432168886147E029462068AF
:102BD00003F028F82068806940F40060216888616B
:102BE0002068806920F4806021688861206880699D
:102BF000296940EA0120216888612FE02946206880
:102C000003F04EF82068C06940F008002168C861F0
:102C10002068C06920F004002168C8612068C0698C
:102C2000296908432168C86118E02946206803F033
:102C300073F82068C06940F400602168C8612068AA
:102C4000C06920F480602168C8612068C069296972
:102C500040EA01202168C86100E000BF00BF00BF5A
:102C6000002084F83C0000BF00BF8BE710B504468D
:102C70000CB9012010BD94F83D0028B9002084F85B
:102C80003C00204600F025F8022084F83D00211D7C
:102C9000206802F02FFF012084F8460000BF84F86E
:102CA0003E0001213F2001554020015541200155A2
:102CB00000BF00BF012084F842004320015544209A
:102CC00001554520015500BF012084F83D0000203A
:102CD000D0E7704770B504460D4615B994F83E002C
:102CE0000BE0042D02D13F20005D06E0082D02D14B
:102CF0004020005D01E04120005D012801D001205D
:102D000070BD1DB9022084F83E000EE0042D03D1F1
:102D100002213F20015508E0082D03D10221402067
:102D2000015502E002214120015501222946206877
:102D300002F02EFF1F492068884203D01E492068F8
:102D4000884201D1012000E0002028B12068406CB9
:102D500040F400402168486416492068884213D036
:102D60001549206888420FD02068B0F1804F0BD001
:102D700012492068884207D011492068884203D050
:102D80001049206888420CD12068806800F007064E
:102D9000062E0CD02068006840F001002168086011
:102DA00005E02068006840F001002168086000200C
:102DB000A6E70000002C0140003401400004004060
:102DC00000080040000C004070B504460025206853
:102DD0004069C0F3C01594F8390021280ED16DB1B7
:102DE0002068406920F0800021684861206B10B1A4
:102DF000206BFEF7C3FF204603F042FE20684069C7
:102E0000C0F3801594F83A0022280ED16DB12068E5
:102E1000406920F0400021684861606B10B1606B30
:102E2000FEF7ACFF204603F01BFE002070BD70478C
:102E300010B504460CB9012010BDA06900B100E036
:102E400000BF94F8390028B9002084F838002046E3
:102E500000F027F8242084F839002068C06820F4A6
:102E600000502168C860204603F014FE2068006905
:102E700020F49040216808612068406920F02A0011
:102E8000216848612068C06840F400502168C8602B
:102E90000020E063202084F8390084F83A00002004
:102EA000CAE7704777B581B00446154694F83A00F2
:102EB000202850D1029800B115B9012004B070BD8E
:102EC00000BF94F83800012801D10220F6E7012064
:102ED00084F8380000BF0298A062A5850020E06356
:102EE000222084F83A001D48616B88621C48616B9F
:102EF000C8621C48616B08630020616B486302AEC6
:102F000032682368191D2B46606BFEF7A9FF00BFCE
:102F100000200090206800680090206840680090C1
:102F200000BF00BF00BF002084F8380000BF206849
:102F3000C06840F480702168C8602068406940F033
:102F40000100216848612068406940F04000216824
:102F500048610020B2E70220B0E700000D6A0008D7
:102F6000536A0008BD690008704770472DE9F84FA3
:102F700004460E46174699464FF0000A94F8390069
:102F800020285AD106B117B90120BDE8F88F00BF3B
:102F900094F83800012801D10220F6E7012084F8D6
:102FA000380000BF0020E063212084F83900FFF7DB
:102FB00053F98246A784E784A068B0F5805F04D106
:102FC000206910B90025B04602E035464FF00008F0
:102FD00000BF002084F8380000BF1BE053460022E9
:102FE00080212046CDF8009003F0D2FD08B10320E7
:102FF000CBE745B9B8F80000C0F308002168486085
:1030000008F1020803E02878216848606D1CE08C14
:10301000401EE084E08C0028E0D15346002240218D
:103020002046CDF8009003F0B3FD08B10320ACE7D3
:10303000202084F839000020A7E70220A5E700003F
:1030400092B03DE0002320220AA91E48006805F046
:10305000BDFB002831D11CA10AA805F097FF00BBD9
:1030600008E00023182204A91A48006805F0AEFB06
:1030700000B100E0F5E700BF03F0C0FB16A003F0CD
:103080005DFF04F035FF06F0AFF9044606F0EAF9FB
:103090001748006806F07EF904F03AFF05F0B6FD27
:1030A0000BE00EA80FC88DE80F000AA80FC803F0A8
:1030B00049FB4FF4FA70FEF7FEFB0120FEF7FBFB25
:1030C000C0E70000380000204155544F20535441C0
:1030D00052540000340000205377697463682074F0
:1030E0006F204155544F204D6F64650D0A0000005C
:1030F00014000020F0B50020002100224B4C247861
:1031000004F0800444B14A4C247896256C4364252D
:1031100094FBF5F4044420B2444C247804F04004B9
:1031200044B1434C247896256C43642594FBF5F414
:10313000041B20B23D4C247804F0200444B13C4CE4
:10314000247896256C43642594FBF5F40C4421B255
:10315000364C247804F0100444B1354C247896257C
:103160006C43642594FBF5F40C1B21B22F4C24789E
:1031700004F0080444B12F4C2478C8256C4364251E
:1031800094FBF5F4144422B2284C247804F004048F
:1031900044B1284C2478C8256C43642594FBF5F48D
:1031A000141B22B20023244C2478032C01D16E235B
:1031B00005E0214C2478042C01D16FF031034C42FE
:1031C0000444E41A04F2DC541C4D2C804C42241AB2
:1031D0001C4404F2DC546C80051E01DB2E4600E02A
:1031E0006E4290FBF6F7041E01DB264600E06642C5
:1031F0000A3EC1F1000C07FB16C6F61A06F2DC56B1
:103200000E4FBE800C1AE41A04F2DC543D46EC80EA
:10321000094C2478032C01D13C24AC8002F2DC540C
:10322000064D2C816C81AC81EC81F0BD400000200A
:10323000460000204700002041000020000D002033
:1032400070B505460C4622462946BCA003F076FE22
:10325000182D23D2DFE805F051230C3A6896AD7F94
:10326000F322C4DBF2F1F0EFEEEDFFEBEAE9E8E781
:1032700054B1B848007800F0800078B9B5480078BB
:103280008030B449087009E0B248007800F080004E
:1032900020B1B04800788038AE4908704CE154B194
:1032A000AC48007800F0400078B9AA480078403077
:1032B000A849087009E0A748007800F0400020B154
:1032C000A44800784038A349087035E154B1A148BA
:1032D000007800F0200078B99E48007820309D49A1
:1032E000087009E09B48007800F0200020B1994860
:1032F00000782038974908701EE154B1954800784D
:1033000000F0100078B993480078103091490870A7
:1033100009E09048007800F0100020B18D48007856
:1033200010388C49087007E154B18A48007800F0E1
:10333000080078B98748007808308649087009E0A5
:103340008448007800F0080020B1824800780838EE
:1033500080490870F0E054B17E48007800F0040025
:1033600078B97C480078001D7A49087009E07948EE
:10337000007800F0040020B176480078001F7549FD
:103380000870D9E054B17348007800F0020078B9B1
:1033900070480078801C6F49087009E06D4800781B
:1033A00000F0020020B16B480078801E6949087067
:1033B000C2E054B16748007800F0010078B9654870
:1033C0000078401C6349087009E06248007800F00A
:1033D000010020B15F480078401E5E490870ABE0F4
:1033E00054B15D48007800F0020078B95A4800787E
:1033F000801C5949087009E05748007800F0020025
:1034000020B155480078801E5349087094E0BCB143
:103410005148007800F00400E0B94F480078001DE2
:103420004D49087016E026E039E020E01BE016E088
:1034300011E030E02BE026E021E04BE033E060E0FB
:103440004548007800F0040020B143480078001F90
:103450004149087070E00120404908706CE002208A
:103460003E49087068E003203C49087064E004208D
:103470003A49087060E00020384908705CE001209B
:103480003749087058E002203549087054E003209D
:103490003349087050E00420314908704CE00020A6
:1034A0002F49087048E054B12E48007800F002001F
:1034B00078B92C480078801C2A49087009E029480E
:1034C000007800F0020020B126480078801E2549CF
:1034D000087031E054B12348007800F0010078B959
:1034E00020480078401C1F49087009E01D480078FA
:1034F00000F0010020B11B480078401E19490870F7
:103500001AE05CB11848007800F0010098B1164844
:10351000007820F00100144908700CE0FEF71CFC54
:103520001248D0F87001124908600F48007840F046
:1035300001000D49087000BF00BF70BD6B657920A8
:103540003D202564202C207072657373203D20255A
:10355000640D0A00400000204300002041000020CC
:1035600042000020440000204D000020980400206C
:10357000480000201AE04FF0FF310D48006805F0C8
:1035800041FC70B90B4800F08DF950B1094800F0CA
:103590008BF8084800F02EFA07A003F0CFFC04F0E7
:1035A00089FA0120FEF787F905F0BCFFE3E7000088
:1035B00030000020980400200D0A000027E0144885
:1035C00000F0A4FB12490869FDF7DBF9044600226C
:1035D000104BFDF7E9F902D100200D4908610C49B3
:1035E0000869FDF7CEF9044622460B460AA003F00F
:1035F000A5FC07494869FDF7C4F9044622460B4675
:1036000008A003F09BFC4FF41670FEF754F9D6E7C0
:1036100038060020F2B102414D2025302E32660DD1
:103620000A000000542025302E32660D0A000000EA
:1036300000BFFEE704E003F099F86420FEF73BF9D1
:10364000F9E700BFFEE700001CB5044606A103C968
:10365000CDE9000140F22D10005D8DF803006946B0
:10366000204601F035FA1CBDFFAA2400000000002E
:1036700010B50446204601F0B9F92046FEF7D0FA0D
:10368000204600F001FB204600F012FB204600F02F
:1036900023FB204600F09AF92046FFF7D5FF0021D2
:1036A000204600F081F910BD70B504464FF49570C6
:1036B000005B00F4007090B3B4F93801FDF710F925
:1036C00006464FF08E41FCF745FF05464FF083411B
:1036D000FCF70EFF4FF4A0710851B4F93A01FDF761
:1036E000FFF806464FF08E41FCF734FF05464FF0D9
:1036F0008341FCF7FDFE4FF4A2710851B4F93C017F
:10370000FDF7EEF806464FF08E41FCF723FF054625
:103710004FF08341FCF7ECFE4FF4A47108514FF4D5
:103720009570005B00F4806078B3B4F94C01FDF74C
:10373000D7F806464FF08E41FCF70CFF0546574977
:10374000FCF7D6FE4FF4AA710851B4F94E01FDF70B
:10375000C7F806464FF08E41FCF7FCFE05464F4980
:10376000FCF7C6FE4FF4AC710851B4F95001FDF7F7
:10377000B7F806464FF08E41FCF7ECFE0546474988
:10378000FCF7B6FE4FF4AE7108514FF49570005B34
:1037900000F4006078B3B4F96001FDF7A1F80646C3
:1037A0004FF08E41FCF7D6FE05463D49FCF7A0FEE2
:1037B0004FF4B4710851B4F96201FDF791F806466F
:1037C0004FF08E41FCF7C6FE05463549FCF790FEEA
:1037D0004FF4B6710851B4F96401FDF781F806465B
:1037E0004FF08E41FCF7B6FE05462D49FCF780FEF2
:1037F0004FF4B87108514FF49570005B00F480509D
:10380000A0B1B4F97401FDF76BF84FF4BE71085123
:10381000B4F97601FDF764F84FF4C0710851B4F9BA
:103820007801FDF75DF84FF4C27108514FF49570BF
:10383000005D00F0020078B3B4F98801FDF750F89C
:1038400005464FF08E41FCF785FE4FF4C8710851D4
:10385000B4F98A01FDF744F805464FF08E41FCF7B4
:1038600079FE4FF4CA710851B4F98C01FDF738F8AC
:1038700005464FF08E41FCF76DFE4FF4CC710851B8
:10388000B4F98E01FDF72CF805464FF08E41FCF798
:1038900061FE4FF4CE71085170BD00000000FA4483
:1038A0000000344330B50146E520405C002879D063
:1038B00000206DE0E0225258125C552A66D10023A8
:1038C000002206E0E02464588518645D1C44E3B2DD
:1038D000521C0A2AF6DBE022545800F10A02A25CCC
:1038E0009A4251D1E0225458421CA25C503A0A2A12
:1038F00048D2DFE802F005101B2631474747473C16
:10390000E0225458821C14442568C1F82E51646882
:10391000C1F8324137E0E0225458821C1444256833
:10392000C1F838516468C1F83C412CE0E022545899
:10393000821C14442568C1F84C516468C1F8504198
:1039400021E0E0225458821C14442568C1F86051DB
:103950006468C1F8644116E0E0225458821C1444A3
:103960002568C1F874516468C1F878410BE0E02221
:103970005458821C14442568C1F888516468C1F801
:103980008C4100E000BF00E001E000BF00BF401C30
:10399000DC22525A82428DDC0022E5204254012072
:1039A00030BDFFE70020FBE77CB505460C4605A1CE
:1039B00003C9CDE900018DF803406946284601F0AE
:1039C00087F87CBDFFAA6300000000001CB5044618
:1039D00006A103C9CDE900014FF49670005D8DF892
:1039E00003006946204601F073F81CBDFFAA2300BE
:1039F000000000002DE9F04788B082464FF4957032
:103A000030F80A0000F48070D0B140F2331010F8A2
:103A10000A004FF4997111F80A1040F2311212F8AD
:103A20000A20CDE9002102904FF4987010F80A3076
:103A3000401E10F80A209AF82E1169A003F07EFAB1
:103A40004FF4957030F80A0000F40070F8B14FF4AC
:103A5000A47151F80A00FCF794FF04460D464FF498
:103A6000A27151F80A00FCF78CFF06460F464FF48E
:103A7000A07151F80A00FCF784FF804642460B46CD
:103A800061A0CDE90067CDE9024503F057FA4FF494
:103A9000957030F80A0000F48060F8B14FF4AE7110
:103AA00051F80A00FCF76DFF04460D464FF4AC7167
:103AB00051F80A00FCF765FF06460F464FF4AA715D
:103AC00051F80A00FCF75DFF804642460B4654A0C1
:103AD000CDE90067CDE9024503F030FA4FF4957067
:103AE00030F80A0000F40060F8B14FF4B87151F8F2
:103AF0000A00FCF746FF04460D464FF4B67151F834
:103B00000A00FCF73EFF06460F464FF4B47151F829
:103B10000A00FCF736FF804642460B4646A0CDE938
:103B20000067CDE9024503F009FA4FF4957030F8CB
:103B30000A0000F48050E8B14FF4C27151F80A0055
:103B4000FCF71FFF804689464FF4C07151F80A0008
:103B5000FCF717FF04460D464FF4BE7151F80A00FA
:103B6000FCF70FFF064632460B4639A08DE83003BE
:103B700003F0E4F94FF4957010F80A0000F0020029
:103B800050B34FF4CE7151F80A00FCF7FAFE044628
:103B90000D464FF4CC7151F80A00FCF7F2FE0646D0
:103BA0000F464FF4CA7151F80A00FCF7EAFE80464E
:103BB00089464FF4C87151F80A00FCF7E2FE02464C
:103BC0000B46CDE90089CDE90267CDE90445CDE991
:103BD000060125A003F0B2F908B0BDE8F0870000A7
:103BE00074696D653A202564E5B9B42564E69C885E
:103BF0002564E697A52564E697B62564E5888625BD
:103C000064E7A7925C720A004163633A2020252E84
:103C1000336620252E336620252E33660D0A0000DC
:103C20004779726F3A20252E336620252E33662081
:103C3000252E33660D0A0000416E676C653A252E0D
:103C4000336620252E336620252E33660D0A0000AC
:103C50004D61673A2020252E336620252E336620BD
:103C6000252E33660D0A00005175617465723A2085
:103C700020252E336620252E336620252E33662000
:103C8000252E33660D0A00001CB5044606A103C9A3
:103C9000CDE9000194F828018DF80300694620461B
:103CA00000F016FF1CBD0000FFAA04000000000089
:103CB0001CB5044606A103C9CDE9000140F2291054
:103CC000005D8DF803006946204600F001FF1CBD31
:103CD000FFAA0300000000001CB5044609A103C9A7
:103CE000CDE900014FF49570005B00128DF80300E0
:103CF0004FF49570005D8DF804006946204600F091
:103D0000E7FE1CBDFFAA0200000000002DE9FC5FD9
:103D100082469AF81800062852D2DFE800F0031015
:103D20001D2A37444021504600F096FFE3490860C1
:103D30005021504600F090FFE149086040E04221E8
:103D4000504600F089FFDD4908605221504600F0DE
:103D500083FFDB49086033E04421504600F07CFFDC
:103D6000D64908605421504600F076FFD4490860D7
:103D700026E04621504600F06FFFD04908605621EA
:103D8000504600F069FFCE49086019E048215046CE
:103D900000F062FFC94908605821504600F05CFFFE
:103DA000C74908600CE04A21504600F055FFC3495E
:103DB00008605A21504600F04FFFC149086000BF1B
:103DC00000BFBF49DAF830000968A1EB0020BD4907
:103DD00008600022DAF834000968CB17A0FB01471D
:103DE00002FB017100FB03114FF400020023204687
:103DF000FCF734FA4FF4FA614018B34908604FF009
:103E00000002B048DAF8281000684FEAE073A1FB1E
:103E1000004702FB007001FB03014FF480724FF07A
:103E200000032046FCF71AFA4FF40043DAF820208A
:103E3000A2FB0332C0185141A44A03C20023A14986
:103E4000DAF82C000968CA17A0FB014703FB0171CF
:103E500000FB021180222046FCF700FA4FF4803369
:103E6000DAF82420A2FB0332C0185141984A03C259
:103E700095480068642190FBF1F42046FCF730FD82
:103E8000CAF800008D48006800229049D1E9003C42
:103E9000A0FB036B02FB03B200FB0C214FF40012EA
:103EA00000233046FCF7DAF9894AD2E90032B0EB58
:103EB000030861EB02014FF4005200234046FCF777
:103EC000CDF90A220023CDE90001FCF7C7F9044629
:103ED000FCF714FDCAF804007B480068B0F5FA6FDF
:103EE0005CDA03207749096880FB01317548006876
:103EF000C217A3FB004701FB007003FB0201002275
:103F000002232046FCF7AAF9724908606E49096845
:103F1000A1F5FA6101EB41016B4A1268A2F5FA6260
:103F200001FB02F000EBD07149106B4A1160664949
:103F30000968A1F5FA6101EB8101634A1268A2F5F3
:103F4000FA6201FB02F0C11700EB5171C910634A1C
:103F500011605D480068624988423EDA5A4800684C
:103F600000F2DC50C0EBC0015748006800F2DC50A2
:103F7000594A126801FB00205749086052480068FE
:103F800000F2DC5081005048006800F2DC50534AD7
:103F9000126801FB0020514908601EE04948006892
:103FA00040434000C117044600222023FCF756F985
:103FB0004849086044490968A1F5FA61424A126813
:103FC000A2F5FA6201FB02F0C11700EB11710911B1
:103FD000414A11600020414908603D48D0E9003164
:103FE0003D480068C217181A61EB02013D4A03C23E
:103FF0003648D0E9003039490968CA17591A60EBC8
:104000000200394AC2E900102C480068002311461A
:10401000D1E90021A0FB026B03FB02B201FB0021EE
:104020004FF400123046FCF719F92E4B0CCB841AD2
:1040300061EB03012046FCF761FC81464FF08C41A7
:10404000FCF788FA80462949FCF784FACAF80C0084
:104050001D4909681F4A1268881AFCF741FC80460E
:10406000FCF78FFC06460022214BFCF7CAFB0446F6
:10407000FCF7CAFCCAF80800DAF80800CAF814000D
:104080001C49DAF80C00FCF72DFA1B490190FCF7EB
:1040900061FA8346FCF775FC8046184A184BFCF71A
:1040A0003EFB06460022124BFCF739FB0446FCF7A8
:1040B000ABFCCAF81000BDE8FC9F0000380D0020E2
:1040C0003C0D0020200D0020240D0020300D00208C
:1040D000280D0020480D0020400D0020440D002038
:1040E00024FAFFFF500D0020580D00200000204151
:1040F0000000594000407D4400007A449A99999903
:104100009999234010B5044604F13800FDF784FC6A
:10411000204600F00EFE1420FDF7CDFB204600F0F7
:1041200042FD1420FDF7C7FB204600F0EFFC08B964
:10413000002010BD0120FCE74848008840F24651AD
:10414000884202DA0846454908804448008840F21F
:104150007261884202DD0846404908803F48408835
:1041600040F24651884202DA08463C4948803B48C2
:10417000408840F27261884202DD08463749488033
:104180003648808840F24651884202DA0846334970
:1041900088803248808840F27261884202DD084699
:1041A0002E4988802D48C08840F24651884202DA64
:1041B00008462A49C8802948C08840F2726188426E
:1041C00002DD08462549C88024480089B0F5966F6D
:1041D00003DA4FF496602149088120480089B0F540
:1041E000E16F03DD4FF4E1601C4908811B48408901
:1041F000B0F5966F03DA4FF4966018494881174876
:104200004089B0F5E16F03DD4FF4E1601349488167
:1042100012488089B0F5966F03DA4FF496600F4923
:1042200088810E488089B0F5E16F03DD4FF4E160CD
:104230000A4988810948C089B0F5966F03DA4FF4BE
:1042400096600649C8810548C089B0F5E16F03DD75
:104250004FF4E1600149C88170470000000D002063
:10426000782001F0D1FBD5494882B42001F0CCFB85
:10427000D2490882B42001F0C7FBD049C88240F27D
:104280001A408882CE48007840F08000CC490870FF
:1042900092E1CC48007800F00100B0B1CA4948680A
:1042A000FCF76FFB06460022C84BFCF791F9044669
:1042B000FCF7AAFBC44948604868C549FCF7CAFB3B
:1042C0001ED2C348C04948601AE0BE48007800F0DA
:1042D0000200A8B1BC494868FCF753FB064600221F
:1042E000BA4BFCF716FA0446FCF78EFBB649486059
:1042F0004868B849FCF7A4FB02D2B648B249486006
:10430000B5480078002850D0B3480078012825D15E
:10431000AA48408A0830A94948824FF4827001F0C7
:1043200073FBA649498A884205DA4FF4827001F08E
:104330006BFBA2494882A148408A40F6C4118842DA
:1043400002DD08469D4948829C48408AB0F5FA7FC4
:104350002BDA4FF4FA709949488226E09E4800789B
:10436000022822D19548408A0838944948825A2028
:1043700001F04AFB9149498A884204DD5A2001F044
:1043800043FB8E4948828D48408A40F6C4118842DA
:1043900002DD0846894948828848408AB0F5FA7F9C
:1043A00003DA4FF4FA70854948828C48007840B3AC
:1043B0008A480078012825D18048008A08307F4942
:1043C00008824FF4827001F01FFB7C49098A884201
:1043D00005DA4FF4827001F017FB784908827748BC
:1043E000008A40F6C411884202DD084673490882FB
:1043F0007248008AB0F5FA7F1FDA4FF4FA706F49FD
:1044000008821AE075480078022816D16B48008AA5
:1044100008386A4908820846008A40F6C411884272
:1044200002DD0846654908826448008AB0F5FA7FD3
:1044300003DA4FF4FA70614908826148007800F0AD
:104440000200B8B15D48C08A08385C49C882084695
:10445000C08A40F6C411884202DD08465749C88226
:104460005648C08A40F2735188421FDA08465349C1
:10447000C8821BE05248007800F00400B0B14F48F9
:10448000C08A08304D49C8820846C08A40F2A461FB
:10449000884202DD08464949C8824848C08AB0F5CA
:1044A000FA7F03DA4FF4FA704449C8824C48007826
:1044B00000F0010060B34148408A0F303F49488214
:1044C0000846008A0F3008820846C08A40F29B5195
:1044D000884202DD08463949C8824FF4827001F0F3
:1044E00093FA3649498A884205DA4FF4827001F01E
:1044F0008BFA32494882822001F086FA2F49098AD4
:10450000884228DA822001F07FFA2C49088222E0D2
:104510003348007800F00200E8B12848408A0F389C
:10452000264948820846008A143808820846C08A0C
:1045300040F29B51884202DA08462049C882AA20EC
:1045400001F062FA1D49498A884204DDAA2001F07F
:104550005BFA1A49488221480078032811D117488C
:10456000808AC830154988820846808A40F26C717A
:10457000884202DD084611498882002017490870E8
:1045800014E016480078042810D10C48808AC838F6
:104590000A4988820846808A40F21A41884202DA33
:1045A00008460649888200200C490870034802F03A
:1045B000EFF83220FDF77FF96BE60000000D0020D8
:1045C0004300002040000020AC0E00200000E03F2F
:1045D00000001643000016C34100002042000020E6
:1045E0004400002008B508490968C9084FF47A72E8
:1045F000B1FBF2F14143009100BF00BF00994A1E98
:1046000000920029F9D108BD9C0E002008B517E0E2
:104610000C48C08900900B488389428901890AA00F
:1046200002F08CFC0748C0880090064883884288C6
:1046300001880AA002F082FC4FF4FA70FDF73BF902
:10464000E6E70000000D0020683A2025642025647C
:104650002025642025640D0A00000000763A2025FC
:10466000642025642025642025640D0A200D0A009D
:104670007047000008B52D4A016991420DD100BF75
:104680002B49896941F00401294A916111468969E0
:1046900001F00401009100BF47E0264A0169914200
:1046A0000DD100BF2249896941F00801204A91617A
:1046B0001146896901F00801009100BF35E01E4AEA
:1046C000016991420DD100BF1949896941F010017A
:1046D000174A91611146896901F01001009100BFEC
:1046E00023E0164A016991420DD100BF1049896942
:1046F00041F020010E4A91611146896901F02001C3
:10470000009100BF11E00E4A016991420DD100BF36
:104710000749896941F04001054A9161114689695B
:1047200001F04001009100BF00BF08BD000801403A
:1047300000100240000C0140001001400014014034
:104740000018014010B504462068012808D1627D98
:10475000217D0620FDF724FE0620FDF711FE69E00D
:104760002068022808D1627D217D0720FDF718FE10
:104770000720FDF705FE5DE02068042808D1627D72
:10478000217D0820FDF70CFE0820FDF7F9FD51E022
:104790002068082808D1627D217D0920FDF700FEF0
:1047A0000920FDF7EDFD45E02068102808D1627D65
:1047B000217D0A20FDF7F4FD0A20FDF7E1FD39E037
:1047C000206820280DD0206840280AD02068802842
:1047D00007D02068B0F5807F03D02068B0F5007F57
:1047E00008D1627D217D1720FDF7DAFD1720FDF746
:1047F000C7FD1FE02068B0F5806F13D02068B0F5CA
:10480000006F0FD02068B0F5805F0BD02068B0F546
:10481000005F07D02068B0F5804F03D02068B0F566
:10482000004F07D1627D217D2820FDF7B9FD2820AA
:10483000FDF7A6FD10BD10B5044621462069FDF721
:104840005DFB10BD00B58FB0282105A8FBF760FD0A
:1048500014216846FBF75CFD0120059000040690DA
:10486000002007900120099002200C90C1030D91B7
:104870004FF4E0110E9105A8FDF71AFF08B100BF33
:10488000FEE70F20009002200190002002904FF4DC
:10489000806003900020049002216846FDF7D2FD5D
:1048A00008B100BFFEE70FB000BD10B5FDF790FEE8
:1048B0004FF47A71B0FBF1F42046FEF73FF9042083
:1048C000FEF728F900220F21501EFDF769FD10BDEB
:1048D00010B504462046FCF7F4FF10BD10B50446A1
:1048E000228B91B2A06AFDF7A9FC10BD10B5044659
:1048F000228891B201222069FDF7A8FC10BD10B5F5
:104900000446228891B200222069FDF79FFC10BD69
:1049100010B50446228B91B20122A06AFDF796FCE5
:1049200010BD1FB504460020009001900290039036
:10493000A069009000200190029003200390694636
:10494000A06AFDF7DBFA1FBD10B50446228B91B2B9
:104950000022A06AFDF77AFC10BD1FB504460020B6
:104960000090019002900390A069009001200190B6
:1049700000200290032003906946A06AFDF7BEFA6A
:104980001FBD10B504462046FFF7B9FF2046FFF7CC
:10499000E4FF2046FFF7D8FF0220FFF799FF2046EB
:1049A000FFF7A4FF0220FFF793FF2046FFF7A7FFC2
:1049B00010BD10B504462046FFF7A1FF2046FFF7C3
:1049C000CCFF2046FFF7A4FF0220FFF781FF20461F
:1049D000FFF78CFF0220FFF77BFF2046FFF78FFFDA
:1049E00010BD10B51420FCF766FF10BD90F828111B
:1049F0000A292ED2DFE801F005090D1115191D2134
:104A000025294FF41661416023E04FF4965141602F
:104A10001FE04FF4165141601BE04FF49641416096
:104A200017E04FF41641416013E04FF461414160DB
:104A30000FE04FF4E13141600BE04FF46131416030
:104A400007E04FF4E121416003E04FF46121416050
:104A500000BF00BF00BF016809B90849016000BF7D
:104A6000074A0168914207D000BF90F8C91011B9F8
:104A7000012280F8C92000BF7047000000440040B8
:104A8000005000407CB505460C460FA103C9CDE996
:104A9000000124B1012C06D0FF2C0CD107E000202E
:104AA0008DF8030008E001208DF8030004E0FF20EA
:104AB0008DF8030000BF00BF00BF052269462846ED
:104AC000FDF73CF97CBD0000FFAA000000000000DB
:104AD00070B504460D46204600F00EF8FFF781FF42
:104AE000052229462046FDF729F9FFF77AFF002124
:104AF0002046FFF7C7FF70BD10B5044605220249E6
:104B00002046FDF71BF910BDE89D0008F0B588B000
:104B10000446002100260027002306E004F11C00C3
:104B200050F823004DF823005B1C072BF6DB0098A0
:104B3000C0F30B00009000200790002224E01046F4
:104B400002EBD07C4FEA6C0CA2EB4C0CBCF1010FD9
:104B500004D150101DF82000414005E050105DF8D0
:104B60002000C0F30F20414008250AE001F4004076
:104B700020B14FF4405080EA410100E04900681E36
:104B8000C5B2002DF2DC521C102AD8DBC1F3033170
:104B90000E46E069C0F30737BE4202D1012008B0DB
:104BA000F0BD0020FBE72DE9F0410446204600F06F
:104BB000C0F81420FCF77FFE002549E004F138001E
:104BC000FCF789FFEC2104F13800FCF759FF04F1F0
:104BD0003800FCF7B0FFA02000EB4500C1B204F1A3
:104BE0003800FCF74DFF04F13800FCF7A4FF04F196
:104BF0003800FCF788FF0520FCF763FE04F138005D
:104C0000FCF769FFED2104F13800FCF739FF0520BE
:104C1000FCF757FE04F13800FCF78DFF012104F189
:104C20003800FCF700FF06460520FCF74AFE00218D
:104C300004F13800FCF7F7FE074604F13800FCF7F2
:104C400062FF47EA062104F11C0040F825106D1CA4
:104C5000072DB3DBBDE8F081F8B504460E4600250C
:104C600004F13800FCF737FFEC2104F13800FCF7C1
:104C700007FF04F13800FCF75EFF314604F138000D
:104C8000FCF7FEFE04F13800FCF755FF04F1380094
:104C9000FCF739FF0A20FCF70EFE04F13800FCF7A0
:104CA0001AFFEC2104F13800FCF7EAFE04F13800A9
:104CB000FCF741FF002104F13800FCF7E1FE04F1AC
:104CC0003800FCF738FF04F13800FCF71CFF04F152
:104CD0003800FCF700FFED2104F13800FCF7D0FEAE
:104CE00004F13800FCF727FF012104F13800FCF73C
:104CF0009AFE8DF80000012104F13800FCF793FEC4
:104D00008DF80100002104F13800FCF78CFE8DF8CD
:104D1000020004F13800FCF7F6FE9DF800509DF803
:104D2000010000EB05259DF8020000EB0525284653
:104D3000F8BD10B5044604F13800FCF7CCFEEC21B8
:104D400004F13800FCF79CFE04F13800FCF7F3FE98
:104D50001E2104F13800FCF793FE04F13800FCF743
:104D6000EAFE04F13800FCF7CEFE10BD08B5364A65
:104D7000016891420DD100BF3449896941F4006155
:104D8000324A91611146896901F40061009100BFC6
:104D900059E00168B1F1804F0DD100BF2B49C969BD
:104DA00041F00101294AD1611146C96901F00101AF
:104DB000009100BF47E0264A016891420DD100BF33
:104DC0002249C96941F00201204AD1611146C969ED
:104DD00001F00201009100BF35E01E4A01689142D6
:104DE0000DD100BF1949C96941F00401174AD161C9
:104DF0001146C96901F00401009100BF23E0164A81
:104E0000016891420DD100BF1049C96941F0080104
:104E10000E4AD1611146C96901F00801009100BF35
:104E200011E00E4A016891420DD100BF074989691E
:104E300041F40051054A91611146896901F400511C
:104E4000009100BF00BF08BD002C014000100240CF
:104E50000004004000080040000C00400034014005
:104E600038B50446022161670121A1670321E1678A
:104E700000BF8248806940F001008049886108468F
:104E8000806900F00100009000BF00BF7C492068ED
:104E9000884230D18620005D48B900BF7949486812
:104EA00020F0C00040F0E06000BF4860E0E08620F5
:104EB000005D01280AD100BF7249486820F0C00097
:104EC00040F0E06040F040004860D1E08620005DA6
:104ED000022801D100BFFEE78620005D0328E5D14E
:104EE00000BF6849486820F0C00040F0E06040F032
:104EF000C0004860BCE02068B0F1804F39D1862006
:104F0000005D48B900BF5F49486820F4407040F038
:104F1000E06000BF4860ABE08620005D01280AD158
:104F200000BF5849486820F4407040F0E06040F409
:104F3000807048609CE08620005D02280AD100BF96
:104F40005049486820F4407040F0E06040F4007040
:104F500048608DE08620005D0328A7D100BF494945
:104F6000486820F4407040F0E06040F440704860D1
:104F70007EE045492068884230D18620005D48B9EE
:104F800000BF4049486820F4406040F0E06000BF46
:104F900048606DE08620005D01280AD100BF3949D4
:104FA000486820F4406040F0E06040F400604860F1
:104FB0005EE08620005D022801D100BFFEE786206A
:104FC000005D032854D100BF2E49486820F440609A
:104FD00040F0E06040F44060486049E02B492068C0
:104FE000884224D18620005D40B900BF2549486829
:104FF00040F0E06020F48050486039E08620005D99
:10500000012801D100BFFEE78620005D022801D102
:1050100000BFFEE78620005D032829D100BF1949A3
:10502000486840F0E06040F48050486020E0184953
:10503000206888421CD194F86C000C2818D1862076
:10504000005D40B900BF0F49486840F0E06020F4BF
:10505000803048600CE08620005D032808D100BF46
:105060000849486840F0E06040F48030486000BF84
:10507000012104F17000FCF74DFC38BD0010024026
:10508000002C0140000001400004004000080040E6
:10509000000C00402DE9F0410446472060600021EB
:1050A000A1602149606EB1FBF0F0401EE06000217C
:1050B0002161A1612046FDF7D9FD18B14A211BA04D
:1050C000FCF774FC6020A0641749606EB1FBF0F03F
:1050D000A0F101084046FBF70CFC0746A16EFBF768
:1050E00007FA06461849FBF735FA0546FBF735FC83
:1050F000E0640021216594F86C2004F14801204609
:10510000FDF736FD18B1582108A0FCF74FFC94F8C4
:105110006C102046FDF7DEFD18B15C2103A0FCF702
:1051200045FCBDE8F081000040420F002E2E5C449B
:1051300072697665725C5372635C6472765F6861F3
:105140006C5F70776D2E63000000C84270470000EE
:1051500008B52D4A016891420DD100BF2B498969DC
:1051600041F48041294A91611146896901F48041E5
:10517000009100BF47E0264A016891420DD100BF6F
:105180002249C96941F40031204AD1611146C969F7
:1051900001F40031009100BF35E01E4A01689142E0
:1051A0000DD100BF1949C96941F48021174AD16165
:1051B0001146C96901F48021009100BF23E0164A1D
:1051C000016891420DD100BF1049C96941F4002125
:1051D0000E4AD1611146C96901F40021009100BF56
:1051E00011E00E4A016891420DD100BF0749C9691B
:1051F00041F48011054AD1611146C96901F4801159
:10520000009100BF00BF08BD0038014000100240FF
:105210000044004000480040004C00400050004066
:1052200010B5044694F8C900012808D104F184009F
:10523000FCF7D0FD18B19D2108A0FCF7B7FB94F84E
:10524000C800012808D104F14000FCF7C3FD18B1E3
:10525000A32102A0FCF7AAFB10BD00002E2E5C4487
:1052600072697665725C5372635C6472765F6861C2
:105270006C5F756172742E630000000038B50446DF
:105280002949206888420DD100BF2848406940F074
:105290000100264948610846406900F0010000907D
:1052A00000BF3FE02249206888420DD100BF1F485F
:1052B000406940F001001D4948610846406900F01E
:1052C0000100009000BF2DE01A49206888420DD1EE
:1052D00000BF1648406940F0010014494861084683
:1052E000406900F00100009000BF1BE012492068F7
:1052F00088420DD100BF0D48406940F002000B49C3
:1053000048610846406900F00200009000BF09E0D3
:105310000A492068884205D1F12109A0FCF746FB23
:1053200000BFFEE738BD0000003801400010024019
:105330000044004000480040004C00400050004045
:105340002E2E5C4472697665725C5372635C647283
:10535000765F68616C5F756172742E630000000097
:1053600010B5044694F8C90001283AD13D49206897
:1053700088420AD194F8CB2094F8CA100F20FDF788
:105380000FF80F20FCF7FCFF2BE03749206888421C
:105390000AD194F8CB2094F8CA101020FDF700F839
:1053A0001020FCF7EDFF1CE03049206888420AD14C
:1053B00094F8CB2094F8CA100D20FCF7F1FF0D20D3
:1053C000FCF7DEFF0DE02A492068884209D194F8F5
:1053D000CB2094F8CA103A20FCF7E2FF3A20FCF701
:1053E000CFFF94F8C80001283AD11E4920688842AE
:1053F0000AD194F8CD2094F8CC100E20FCF7D0FF01
:105400000E20FCF7BDFF2BE01749206888420AD127
:1054100094F8CD2094F8CC101120FCF7C1FF112096
:10542000FCF7AEFF1CE01149206888420AD194F8CD
:10543000CD2094F8CC100C20FCF7B2FF0C20FCF728
:105440009FFF0DE00A492068884209D194F8CD20D9
:1054500094F8CC103B20FCF7A3FF3B20FCF790FF17
:1054600010BD0000003801400044004000480040EA
:10547000004C004038B5044600BF5348806940F0F6
:105480000100514988610846806900F001000090E0
:1054900000BF00BF4D492068884228D14FF4857075
:1054A000005D40B900BF4A49486840F0E06020F024
:1054B0000400486081E04FF48570005D032808D146
:1054C00000BF4349486840F0E06040F00400486095
:1054D00073E04FF48570005D012801D100BFFEE745
:1054E0004FF48570005D022867D100BFFEE739499F
:1054F0002068884228D14FF48570005D40B900BF14
:105500003349486840F0E06020F00800486054E00B
:105510004FF48570005D012801D100BFFEE74FF414
:105520008570005D022801D100BFFEE74FF4857051
:10553000005D032841D100BF2549486840F0E06084
:1055400040F00800486038E023492068884234D1A0
:105550004FF48570005D48B900BF1D49486820F0D0
:10556000300040F0E06000BF486026E04FF48570F6
:10557000005D01280AD100BF1549486820F03000BD
:1055800040F0E06040F01000486016E04FF4857095
:10559000005D022801D100BFFEE74FF48570005D79
:1055A00003280AD100BF0A49486820F0300040F0C3
:1055B000E06040F03000486000BF022104F1F400D8
:1055C000FCF7A8F938BD0000001002400038014087
:1055D00000000140004400400048004010B504466F
:1055E0002549206888420AD194F8252194F824118D
:1055F0002520FCF7D5FE2520FCF7C2FE3AE01F4926
:10560000206888420AD194F8252194F82411262094
:10561000FCF7C6FE2620FCF7B3FE2BE018492068F5
:1056200088420AD194F8252194F824112720FCF708
:10563000B7FE2720FCF7A4FE1CE012492068884230
:105640000AD194F8252194F824113420FCF7A8FEFF
:105650003420FCF795FE0DE00B492068884209D103
:1056600094F8252194F824113520FCF799FE352073
:10567000FCF786FE10BD00000038014000440040E9
:1056800000480040004C00400050004010B5044667
:105690002046FDF7CDFB18B18F2102A0FCF786F95B
:1056A00010BD00002E2E5C4472697665725C5372E8
:1056B000635C6472765F68616C5F756172742E639F
:1056C0000000000000BF016809B9C449016000BFC3
:1056D00000BF416811B94FF41651416000BF00BFCF
:1056E000416909B90C22426100BF00BF816809B954
:1056F0000022826000BF00BFC16809B90022C260F9
:1057000000BF00BF016909B90022026100BF00BFEC
:1057100090F8241111B9012180F8241100BF00BFB5
:1057200090F8251111B9032180F8251100BF90F8D8
:10573000C81001295ED1A94A0168914202D1A84945
:10574000016415E0A74A0168914203D1A4493C31A4
:1057500001640DE0A44A0168914203D1A0492839AF
:10576000016405E0A14A0168914201D1A0490164A8
:1057700000BF416C09B91022426400BF00BF816CB8
:1057800009B90022826400BF00BFC16C09B9802240
:10579000C26400BF00BF016D09B90022026500BFED
:1057A00000BF416D09B90022426500BF00BF816D95
:1057B00009B90022826500BF00BFC16D09B900228E
:1057C000C26500BF00BF90F8CC1011B9012280F86B
:1057D000CC2000BF00BF90F8CD1011B9012280F895
:1057E000CD2000BF00BFEA21095A11B96422EA2185
:1057F0000A5200BF90F8C910012972D1774A016896
:10580000914204D1764A143284210A5019E0754A33
:105810000168914204D1724A283284210A5010E072
:10582000714A0168914204D16D4A143A84210A50A8
:1058300007E06E4A0168914203D16D4A283A8421FB
:105840000A5000BF8821095811B9002288210A5046
:1058500000BF00BF8C21095811B900228C210A50C9
:1058600000BF00BF9021095811B9802290210A5031
:1058700000BF00BF9421095811B9002294210A5099
:1058800000BF00BF9821095811B9002298210A5081
:1058900000BF00BF9C21095811B920229C210A5049
:1058A00000BF00BFA021095811B90022A0210A5051
:1058B00000BF00BF90F8CA1011B9012280F8CA20B9
:1058C00000BF00BF90F8CB1011B9012280F8CB20A7
:1058D00000BF00BFDE21095A11B96422DE210A523D
:1058E00000BFD0F8F41021B14FF48671095801B10E
:1058F00070473A4A016891420FD14915C0F8F41037
:105900003C4A4FF482710A5012154FF486710A50C6
:10591000384A4FF48E710A504EE0324A0168914283
:105920000FD10421C0F8F410324A4FF482710A50AA
:1059300008224FF486710A502E4A4FF48E710A5095
:105940003AE0294A016891420FD10915C0F8F410D4
:10595000294A4FF482710A50D2144FF486710A50CA
:10596000254A4FF48E710A5026E0204A0168914280
:105970000FD10915C0F8F410204A4FF482710A5073
:10598000D2144FF486710A501C4A4FF48E710A509B
:1059900012E01B4A016891420ED18914C0F8F4103C
:1059A000164A4FF482710A5004224FF486710A504D
:1059B000144A4FF48E710A500222F8210A50002234
:1059C0004FF488710A50FC210A500322091D0A5025
:1059D00000224FF485710A5400BF89E70038014066
:1059E000440002400044004000480040004C004099
:1059F0005804024000080140000C01400010014022
:105A00000050004000140140014632224A4309235D
:105A100092FBF3F202F5FA7290B240F6C412904291
:105A200000DD1046B0F5FA7F01DA4FF4FA707047E6
:105A300010B502F07BFC03F0C9FD02F091FC10BD33
:105A400010B5002100200022214B5B6803F00C01FF
:105A500021B1042906D0082928D107E01D4B1E4C8E
:105A6000236027E01B4B1C4C236023E0184B5B6832
:105A700003F47010164B5B6803F48032022303EBCF
:105A8000904022B9154B4343134C23600DE0104B5B
:105A90005B6803F4003323B1104B43430E4C236087
:105AA00003E00C4B43430C4C236003E0094B0A4CCE
:105AB000236000BF00BF064B5B68C3F30313084CB1
:105AC000E15C054B1B68CB40034C236010BD00001C
:105AD0000010024000127A009C0E002000093D00D8
