:020000040800F2
:10000000C05300203902000859300008E9010008F7
:1000100055300008BB160008BD5C00080000000059
:100020000000000000000000000000001939000876
:10003000311700080000000073010008B14C0008EF
:10004000530200085302000853020008530200083C
:10005000530200085302000853020008530200082C
:10006000530200085302000853020008530200081C
:10007000530200085302000853020008530200080C
:1000800053020008530200085302000853020008FC
:10009000530200085302000853020008E51B000841
:1000A00053020008530200085302000853020008DC
:1000B000674D0008694D00086B4D000853020008A9
:1000C00053020008530200085302000853020008BC
:1000D00053020008515C0008755C0008995C000838
:1000E000E31B0008530200085302000853020008F3
:1000F000530200085302000853020008530200088C
:1001000053020008530200086D4D00085302000816
:100110000B5A00080D5A00086F4D0008714D000879
:10012000530200085302000853020008530200085B
:10013000DFF80CD000F028FE00480047F314000858
:10014000C0530020EFF3108072B6704780F3108820
:100150007047324A1368012B04D04FF0010313603B
:100160002F4A10602F4A11602F484FF080510160D4
:100170007047EFF3108272B62848016891B14FF0D2
:10018000000101602648016829B1EFF3098121E9E6
:10019000F00F00680160234909680968B1E8F00FB1
:1001A00081F3098882F310884EF0040E70471D49D0
:1001B00008601B494FF00000086018494FF001002B
:1001C00008601A481A49D0F8002041EA020101608B
:1001D00015484FF08051016016480068006880F3B0
:1001E000088861B662B670471EF0040F0CBFEFF3CB
:1001F0000880EFF3098020E9F00F40F804ED1EF0CD
:10020000040F0CBF80F3088880F3098800B506F05E
:1002100071FE5DF804EB4EF0040E7047600B002099
:10022000580B00205C0B002004ED00E020ED00E006
:100230000000FFFF08ED00E0064880470648004741
:10024000FEE7FEE7FEE7FEE7FEE7FEE7FEE7FEE786
:10025000FEE7FEE7654D0008310100082DE9F04199
:100260000024061B254671F1000605DA012400274B
:10027000D0EB070067EB0101161E73F1000605DAEB
:100280000027D2EB0702012567EB030300F074FBA4
:1002900086460E4617469C46AC4204D00025D0EB5D
:1002A000050E65EB010624B10020D2EB000760EBE0
:1002B000030C704631463A466346BDE8F081202A79
:1002C00004DB203A21FA02F00021704721FA02F300
:1002D000D040C2F12002914008431946704740EADD
:1002E00001039B0703D009E008C9121F08C0042AB4
:1002F000FAD203E011F8013B00F8013B521EF9D29B
:100300007047D2B201E000F8012B491EFBD27047C2
:100310000022F6E710B513460A4604461946FFF7D1
:10032000F0FF204610BD00000FB400B58DB010A93D
:1003300009900B9000914FF0FF300A9000200C9034
:1003400005480690054807906A4609A80F9900F0ED
:100350004BFB0DB05DF814FB050A0008230A0008EA
:100360002DE9FF5FD2E901A74FF000089169994696
:100370001446DDF838B0464601988847054659EAE4
:100380000B0005D009E0A169761C01988847054655
:10039000216A284688470028F5D1681C03D05FEA07
:1003A000CA7005D015E04FF0FF3004B0BDE8F09FF3
:1003B0002068011D2160D0F800800AE05FEACA7061
:1003C00001D108F8015BA169761C7F1E019888475E
:1003D0000546002F1ADD681C18D0B9F1000F0DD0AA
:1003E000E81705EBD060421120F01F0059F82210E9
:1003F0002A1A012090400142E0D107E0BBF1000F32
:10040000DCD1216A284688470028D7D0E1690198C5
:100410008847BBF1000F07D1002E05DD5FEACA70E7
:1004200002D1002188F80010A068B84203DDBBF1BA
:10043000000F03D017B16FF00100B6E73046B4E704
:10044000F0B480EA0102D40F4200B2EB410F02D2B5
:100450000246084611464A0042D0C30DDDB2C1F340
:10046000C752AD1A202D35DAC1F3160141F400024E
:1004700004B15242C5F1200602FA06F12A411044A5
:10048000B3EBD05F23D0C4B1012DA0EBC35009DC86
:10049000F0BC4FF0004202EAC352DBB200F50000AC
:1004A00000F027BB400000F1807000EBC350A0F1CA
:1004B000807040EAD170490009E0490841EAC07102
:1004C000A0EBC35000F50000400800EBC350F0BCA7
:1004D00000F006BB6142012202EB4101001BF6E77E
:1004E000F0BC704781F00041AAE780F00040A7E728
:1004F00080EA010210B502F00043400022D04A0019
:100500001FD0010E01EB1261C0F35600C2F3560278
:1005100040F4000042F40002A0FB022000047F39F6
:10052000140400D0401C50EA124001D44000491E7F
:10053000C2B20C0604EBD010401C4008802A02D046
:1005400003E0002010BD20F00100002900DA0020A7
:10055000184310BD30B480EA010202F0004530F0CB
:10056000004221F0004013D090B1C30DD40DC2F36E
:100570001601C0F31600E41A41F4000140F4000231
:100580007D34914201D3641C00E04900002C02DA62
:1005900030BC002070474FF400000023914201D38B
:1005A000891A034340084FEA4101F7D151B1914202
:1005B00002D14FF0004105E002D24FF0010101E00D
:1005C0006FF0010103EBC450284430BC00F088BA3E
:1005D0002DE9FE4F81EA030404F0004421F00041BC
:1005E00000944FF0000B23F0004350EA01045ED06A
:1005F00052EA03045BD0C3F30A54C1F30A552C44F6
:10060000A4F2F3340194A0FB0254C1F3130141F4AA
:100610008011C3F3130343F4801301FB024400FB76
:10062000034E840A970A44EA815447EA8357A4FB9D
:10063000076802958D0A05FB07854FEA932C04FB9A
:100640000C542705029D4FEA065847EA1637B5EBCA
:1006500008056EEB070C870E920E47EA811742EAF7
:100660008312A7FB0201B6EB0B0164EB00042B0D18
:1006700043EA0C335E1844EB1C50DA465146E7FB64
:100680000201C5F313044FEA0B3343EA14534FEA54
:100690000432019C43EA0603A4F10C040294009C7A
:1006A000CDE900B400F062FA03B0BDE8F08F00209D
:1006B0000146F9E72DE9F04D81EA030404F0004B0F
:1006C00021F0004514464FF0000A23F0004150EAA3
:1006D000050220D054EA01021DD0C5F30A57024694
:1006E000C5F31303C1F31300C1F30A5640F4801598
:1006F00043F48013A7EB0608101BD64608F2FD381A
:1007000073EB050002D308F1010801E092185B4188
:10071000B8F1000F03DA00200146BDE8F08D00209B
:100720004FF48011064684460EE0171B73EB050755
:1007300005D3121B63EB050306434CEA010C490881
:100740004FEA300092185B4150EA0107EDD152EABE
:10075000030012D082EA040083EA0501084305D0B1
:10076000101BAB4106D20122002306E000224FF00D
:10077000004302E06FF0010253101AEB06004CEB4D
:10078000085110EB0A0041EB0B01BDE8F04D00F001
:10079000DEB9C10F80EAE0700844CA079623002141
:1007A00000F0A7B996230022114600F0A2B9F0B4D8
:1007B000CA17CB0F50405140C61841F100054FEA0F
:1007C000C372314628004FF0960303D0B623F0BC25
:1007D00000F08FB930460021F9E700F0004220F028
:1007E0000040C10DC0F3160040F400007F2901DA7B
:1007F00000207047962903DCC1F19601C84001E052
:1008000096398840002AF4D04042704720F00040DA
:10081000C10DC0F3160040F400007F2901DA00206A
:100820007047962903DCC1F19601C840704796399C
:1008300088407047C1F30A5210B5C1F3130140F26A
:10084000FF3341F480119A4201DA002010BD40F2DA
:1008500033439A42A2F2334203DC5242FFF72FFDA8
:1008600010BD904010BD00F0004230F000400AD0B2
:10087000C10D01F56071C0F3160042EA0151C208D2
:1008800040071143704700200146704730B5041EF1
:1008900071F1000404DB4FF00044404264EB0101BD
:1008A000141E73F1000405DB1C464FF00043524256
:1008B00063EB04038B4208BF824230BD30B5041E97
:1008C00071F1000404DB4FF00044404264EB01018D
:1008D000141E73F1000405DB1C464FF00043524226
:1008E00063EB0403994208BF904230BD01F000431E
:1008F00030B421F0004150EA010206D00A0DA2F501
:100900006072C1F31301002A02DC30BC0020704782
:10091000440F44EAC104C100E01830BC00EBC250EF
:1009200000F0DEB8002801DBC0F10040002901DB47
:10093000C1F1004181427047002801DBC0F1004055
:10094000002901DBC1F100418842704730B50B46F8
:10095000014600202022012409E021FA02F59D42EF
:1009600005D303FA02F5491B04FA02F52844151EC3
:10097000A2F10102F1DC30BD2DE9F05F0546002057
:1009800092469B4688460646814640241BE0284600
:10099000414647462246FFF792FC53465A46C01A44
:1009A000914110D311461846224600F0FFF92D1A46
:1009B00067EB01084F4622460120002100F0F6F9BE
:1009C00017EB00094E41201EA4F10104DFDC48466C
:1009D00031462A464346BDE8F09F000002681144B4
:1009E0001378016018467047D16004495161044989
:1009F000116200211161114600F0FEB9DD09000805
:100A0000EF0D0008426842B1016811F8013B23B1C3
:100A1000521EC0E90012184670470121C160881EAD
:100A2000704742685AB1C368016843B983688B4212
:100A300005D0491E521CC0E90012002070474FF03B
:100A4000FF3070470FB4002300B589B00CA90091A6
:100A50000B996FF00042CB601E4B06931E4B079321
:100A60000423CDE901321D4A089202466B4600205C
:100A700000F0D8FB09B05DF814FB70B586B00646EF
:100A80004FF0FF300091CDE90101002015460C46E2
:100A900004903246694604A8FFF7D4FF0246049842
:100AA000211825B108B1084600E0204628600498C6
:100AB00000280DD0002A02DD0098884208D0081BCB
:100AC0000094CDE901043246694604A8FFF7BAFF55
:100AD00006B070BD050A0008230A0008EF0D0008E3
:100AE0000029A8BF7047401C490008BF20F0010042
:100AF000704710B4B0FA80FC00FA0CF050EA010420
:100B000004BF10BC704749B1CCF1200421FA04F4B1
:100B100011FA0CF118BF012121430843A3EB0C018A
:100B2000CB1D4FEA00614FEA102042BF002010BCED
:100B3000704700EBC35010440029A4BF10BC70479D
:100B4000401C490008BF20F0010010BC704710B5E0
:100B5000141E73F1000408DA401C41F100019218E0
:100B60005B411A4301D120F0010010BD2DE9F04D89
:100B700092469B4611B1B1FA81F202E0B0FA80F2DE
:100B80002032904600F012F904460F4640EA0A006F
:100B900041EA0B0153465A46084313D0114653EA23
:100BA000010019D0C8F140025046FFF788FB054606
:100BB0000E4650465946424600F0F8F8084305D024
:100BC000012004E020463946BDE8F08D00200543B1
:100BD00046EAE0762C4337430A986305E40AA0EB23
:100BE00008000022FD0A44EA47540A3002D50020DA
:100BF0000146E9E7010510196941DDE908450019D9
:100C00006941BDE8F04DA2E72DE9FE4F804681EA3B
:100C10000300C00F0C46009021F0004123F0004576
:100C2000B8EB0200A94105D24046214690461C4639
:100C30000B46024623F00040104347D0270DC7F370
:100C40000A00C3F30A510290401A019040286BDA5F
:100C5000C3F3130040F4801B0098924620B1002398
:100C6000D2EB030A63EB0B0B01985946C0F140022B
:100C7000504600F09BF806460D4650465946019AEC
:100C800000F0A3F810EB08006141002487EA11523C
:100C900084EAE7731A4340D0009A62B3019A012AAA
:100CA0004FEA075215DC001B61EB02014FF00042D6
:100CB00002EA0752CDE90042001C41F5801132469C
:100CC0002B46FFF753FF03B0BDE8F08F40462146A7
:100CD000F9E7001B61EB0201001C41F580130018CD
:100CE0005B412018A2F5001747EB030140EAD570DD
:100CF000B6196D4111E06D084FEA360645EAC07538
:100D00004FEA0752001B61EB0201001C41F5801104
:100D100049084FEA30000019514132462B4603B0D2
:100D2000BDE8F04FFFF713BF0098012240000023F9
:100D3000D0EB020263EBE073009821464FEAE074C7
:100D4000B8EB000061EB0401E9E783F000435BE7E7
:100D500081F0004158E7C1F30A52C1F3130140F298
:100D6000FF3341F480119A4202DA002001467047B5
:100D700040F233439A42A2F2334202DC5242FFF77E
:100D80009EBA00F013B80000064C074D06E0E0687C
:100D900040F0010394E8070098471034AC42F6D3C2
:100DA000FFF7CAF9248E0008448E0008202A04DBCD
:100DB000203A00FA02F1002070479140C2F120036E
:100DC00020FA03F3194390407047202A06DBCB1723
:100DD000203A41FA02F043EAE07306E041FA02F3F6
:100DE000D040C2F120029140084319467047C0B27A
:100DF0004FF4F05100F032BB2DE9F34F8BB04FF0C0
:100E0000000801F10C000C464FF0010B46460DF1B5
:100E1000080A01906269012101989047051E2DD0B2
:100E2000252D2CD0216A8847C0B162690121019823
:100E30009047216A88470028F7D1411E62690198CE
:100E4000904700E0761CA1690B988847216A884783
:100E50000028F7D1E1690B988847DBE7A1690B9877
:100E600088470746A84201D1761CD3E7E1690B9871
:100E700088477F1C02D1B8F1000F6FD046E10027F0
:100E800062693D463946019890472A2804D1626933
:100E90000121019890470125DFF8849262690121C0
:100EA00001989047A0F130010A290AD24F45E5DCAC
:100EB00007EB870100EB4107303FDFD445F0100519
:100EC000ECE7E90601D46FF000476C280AD04C2803
:100ED00014D0682815D06A280DD074281CD07A2820
:100EE0001AD01DE062690121019890476C2802D058
:100EF00045F0040514E045F002050DE045F020053D
:100F00000AE06269012101989047682802D045F003
:100F1000080505E045F400656269012101989047E4
:100F2000C4E9015765283DD019DC58287AD00CDC7B
:100F3000452837D004DC252826D0412831D131E09E
:100F400046282FD047282CD12CE05B2877D0612869
:100F500028D063287CD0642823D15AE0D0E06F28C1
:100F600048D008DC66281DD067281BD0692821D00E
:100F70006E2816D127E0702845D0732868D07528D0
:100F800047D078280DD14DE0A1690B9888470546D8
:100F900025283FF469AFE1690B9888476D1C3FF441
:100FA0006AAFB3E023466A466FF001000B9900F088
:100FB00039F99EE045F040006060A80723464FF0F5
:100FC000000236D43EE0E8077FF447AF2068011DF9
:100FD00021600068290501D506701BE7290701D5A6
:100FE000068017E7A90703D5F117C0E9006111E7EB
:100FF00006600FE745F040006060A80723464FF009
:10100000080216D41EE040F60E0125EA01006060D9
:1010100016E045F040006060A80723464FF00A0242
:1010200007D40FE045F040006060A80708D52346CC
:1010300010226FF001000B99AFF3008059E007E038
:10104000234610226FF001000B99AFF3008050E0AF
:101050004FF000094F464B46632802D05B2806D06C
:1010600040E0E80601D40120A06001273AE062696F
:101070000121019890475E2805D14FF0010962696E
:10108000494601989047216939B900210A465346DB
:1010900043F82120491C0829FADBB0B3216969B95A
:1010A000C11700EBD16253110AEB830122F01F023A
:1010B000821A01200B68904003430B606269012192
:1010C000019890475D28E8D1B9F1000F09D00020C0
:1010D000514651F82020D24341F82020401C0828D6
:1010E000F7DB02AB224600976FF001000B99FFF788
:1010F00037F900280CDA401C08D1BBF1000F05D0ED
:101100004FF0FF300DB0BDE8F08FFFE74046F9E744
:10111000E90701D108F1010806444FF0000B79E618
:10112000CCCCCC0C2DE9FF4F087881B09946FF2834
:1011300005D0491C2D2804D00024002308E00023FA
:101140000BE00124F9E703EB830300EB4303491CA5
:101150000878FF28F7D104B15B4200200090147892
:1011600001462D2C01D02B2C04D1521C2D2C12D039
:101170000024009400251678FF2E0ED00A24A0FB30
:1011800004C801FB0481002700FB0711521C16EB69
:101190000C006941EFE70124EBE7994450EA0102B2
:1011A0000ED00024AA4D2646DFF8A88200F06AF986
:1011B00082468B46B9F1000009DAC9F100071BE04D
:1011C00001980021C0E9001105B0BDE8F08F074685
:1011D00012E0F80707D022462B4630464146FFF77B
:1011E000F7F90646884622462B4610461946FFF771
:1011F000EFF904460D467F10002FEAD1B9F1000F38
:10120000324643465046594602DAFFF753FA01E0A8
:10121000FFF7DEF9009A0AB181F00041019AC2E9B4
:101220000001D1E72DE9FF4F1F468DB0D7E90146F8
:101230004FF0FF382E2045464FF000090B90B9695A
:101240006D1C0E988847396A824688470028F6D177
:10125000BAF1FF3F0AD024F4D064002E11DDBAF1B8
:101260002B0F08D0BAF12D0F0BD102E0404611B080
:10127000ABE744F48064B9696D1C0E9888478246D8
:10128000761E6946600501D52D2000E02B208DF8E3
:10129000000001F1010B0DF1200809E0B9696D1C96
:1012A0000E98884782460F9844F40074761E0560B5
:1012B000002E02DDBAF1300FF0D00B998A453ED1F5
:1012C00044F0800406E00F99681CA9F1010944F478
:1012D00000740860B9696D1C761E0E9888478246B6
:1012E0003028F0D02BE00B998A4505D1200603D495
:1012F00044F08004761E18E0504604F031FF08B335
:101300000DF11301761E44F400748B4508D2AAF146
:1013100030000BF8010B200607D5A9F1010003E00E
:10132000200602D409F101008146A00502D50F99DB
:10133000681C0860B9696D1C0E9888478246002EAB
:10134000D1DC53E0002E51DDBAF1650F02D0BAF1C5
:10135000450F4BD1A00549D5B9696D1C24F44074E3
:10136000761E0E9888478246002E0CDD2B2804D06E
:10137000BAF12D0F07D144F48074B9696D1C0E9831
:1013800088478246761EE00501D52D2100E02B21FD
:1013900008F8011BCDF82C8021E00DF12901761E03
:1013A00044F4007488450CD2AAF1300010F0FF001C
:1013B00088F8000002D10B99884509D908F1010885
:1013C00006E0E00501D5244801E042F20F708146B5
:1013D000B9696D1C0E98884782460F980560002EEB
:1013E00004DD504604F0BCFE0028D6D1F9690E9801
:1013F0008847FF208BF8000088F800000020069046
:1014000007904B466A4608A906A8FFF78BFEA00581
:1014100002D46FF001002AE714F0240F0AD0E0078D
:1014200014D1DDE906123868031D3B600068C0E98D
:1014300000120BE0DDE90601FFF758FA0146E0076C
:1014400004D13868021D3A600068016028460EE742
:10145000000024400000F03FF1D8FFFF7F2801D9B1
:10146000002208E0064A02EB5002C007127800D1C1
:10147000120902F00F02012090400840704700005E
:10148000CD8D00080EB540F2334202920022CDE924
:1014900000221346FFF76AFB03B000BD70B58C183D
:1014A00010F8015B15F0070301D110F8013B2A1178
:1014B00006D110F8012B03E010F8016B01F8016B65
:1014C0005B1EF9D12B0705D40023521E0DD401F861
:1014D000013BFAE710F8013BCB1A921C03E013F82A
:1014E000015B01F8015B521EF9D5A142D8D300205F
:1014F00070BD10B507F0D2FA002010BD8EB006F016
:101500007DFE044606F0B8FE06F08AFA41E00023AC
:10151000142209A91F48006806F062F8002835D196
:101520001DA109A806F03CFC00BB08E00023202216
:1015300001A91D48006806F053F800B100E0F5E786
:1015400000BF04F0D3F919A004F0E6FC05F0DAFBC3
:1015500006F054FE044606F08FFE1A48006806F0B6
:1015600023FE05F0DFFB06F05BFA0FE00D9800901C
:1015700009A80FC803F042FF4FF4967000F0F6F888
:10158000002004F0F3F9032004F0F0F9012000F04A
:10159000EDF8BCE72800002048414E444C4520535C
:1015A00054415254000000002C000020537769740D
:1015B000636820746F2048414E444C45204D6F6451
:1015C000650D0A000C0000202DE9F04704460E4688
:1015D00015466561A66131462846FEF783FFE06344
:1015E000D4E90F01FEF77EFF80462168FEF780FFF9
:1015F0006062E16B6068FEF77BFFA062616BA163D4
:10160000216B61634FF08040216CFEF771FF8146D2
:10161000E16BFEF76AFF8046616CFEF711FF206305
:10162000216BA068FEF764FFE062D4E90901FEF7D0
:1016300007FF8146E16AFEF703FF8046FFF7CDF81A
:1016400007463846FFF7A5F88046E169FEF7F8FE41
:101650002062206AE061216C6164E16B2164206A90
:10166000BDE8F08710B504462CB96B2108A000F046
:10167000E5F800BFFEE70021A163616321632162F9
:10168000E162A162616261642164E16310BD0000F6
:101690002E2E5C4273705C416C676F5C5372635CAE
:1016A000616C676F5F7069642E6300000A68026096
:1016B0004A6842608A688260704700BFFEE730B5C2
:1016C00090F840500124AC40C56B6C6004686360C6
:1016D0004468102C04D10468A2600468E16003E04F
:1016E0000468A1600468E26030BD00009AB0002484
:1016F00018E04FF0FF310C48006806F08DFA70B921
:1017000001A90A4800F048FAC4B244B101A803F0A4
:101710006DFC2246002101A805F0FAFE00240120FC
:1017200000F024F8E5E70000200000207C02002003
:101730007047000008B50024002512E000230422B1
:1017400069460848006805F04BFF00B9009C064850
:1017500005692146284607F0E7F94FF4167000F0B6
:1017600005F8EBE7300000204405002010B50446E2
:10177000204606F00FFD10BD32280AD2002105E0F8
:10178000002200E0521C082AFCDB491C8142F7D3EE
:1017900019E000EBC0024FF0E0235A6100229A6189
:1017A00001221A6100BF4FF0E022116901F001022D
:1017B0001AB101F48032002AF5D000224FF0E02364
:1017C0001A619A6100BF704770B505460E46002445
:1017D0002BE004EB440105EBC10002F09FF804EBA1
:1017E000440105EBC10002F07AF904EB440005EB7B
:1017F000C00040680E4988420FD004EB440005EB5E
:10180000C00040680B49884207D004EB440005EB58
:10181000C00040680849884205D104EB440105EB4B
:10182000C10002F0E3F8601CC4B2B442D1DB70BD69
:1018300000002110000011100000311070B50446A6
:101840000D4604A004F068FB2A46214606A004F0D9
:1018500063FB70BD2D3E48617070656E20457272ED
:101860006F722121210D0A002D3E4572726F722088
:10187000506172616D65746572732056616C756537
:101880003A2066696C65202573206F6E206C696E46
:10189000652025640D0A000010B500F017FC02F069
:1018A00025F902F056F910BD10B504460221204674
:1018B000FFF78AFF10BD2DE9F04107460D460024D1
:1018C000384602F082F9002615E0384602F06BF93E
:1018D000022002F051F9384602F05CF96006040E6D
:1018E000384602F04FF908B1601CC4B2012002F082
:1018F00043F9701CC6B2082EE7DB1DB1384602F072
:1019000094F902E0384602F0A8F92046BDE8F081DB
:1019100070B506460C46304602F073F9304602F0C8
:1019200042F900251CE004F0800018B1304602F0B6
:1019300043F902E0304602F05BF96006040E022033
:1019400002F01AF9304602F025F9022002F014F9EB
:10195000304602F028F9022002F00EF9681CC5B2E8
:10196000082DE0DB70BD10B50446204602F049F9B1
:10197000204602F021F9204602F00CF9042002F082
:10198000FBF8204602F034F9042002F0F5F8204676
:1019900002F009F910BD10B50446204602F031F9F5
:1019A000204602F000F9204602F022F9042002F05D
:1019B000E3F8204602F0EEF8204602F0FDF804209D
:1019C00002F0DAF810BD70B505460024284602F092
:1019D000FCF8284602F0F0F8012002F0CDF8284685
:1019E00002F0D8F8012002F0C7F808E0601CC4B289
:1019F000FA2C04DD2846FFF7CEFF012070BD2846F3
:101A000002F0C0F80028F1D1284602F0CCF80020FE
:101A1000F4E7000070B504460D46606E32281BD115
:101A200094F86C0030B1042807D0082808D00C289E
:101A30000CD108E0206845630DE0206885630AE06A
:101A40002068C56307E02068056404E0D42103A092
:101A5000FFF7F4FE00BF00BF70BD00002E2E5C44F7
:101A600072697665725C5372635C6472765F6861FA
:101A70006C5F70776D2E630070B505460E460024CE
:101A800013E004EB041105EBC10002F0C3FA04EB10
:101A9000041105EBC10002F037FB04EB041105EB68
:101AA000C10002F04BFC601CC4B2B442E9DB70BD63
:101AB00010B5044602F09EFC204602F057FF204677
:101AC00002F030FD204602F09FFD204602F0FCFCB3
:101AD000204602F091FC204602F020FE204602F053
:101AE000D1FE204602F026FF94F8C900012819D142
:101AF00000BF04F184006063A820045100BFDE2110
:101B0000085B04F08DFFE02108512068C06840F0B8
:101B100010002168C860DE20025BE02001592046E9
:101B200001F0F4F894F8C80001280BD100BF04F1CB
:101B300040002063646600BFEA21085B04F070FF88
:101B4000EC21085110BD38B5044620680068C0F388
:101B5000001000B300BF00200090206800680090D3
:101B600020684068009000BF00BF204601F060F888
:101B7000DE20005B616B09684968401A81B2DC2095
:101B800001530121E5200155DE20025BE0200159CF
:101B9000204601F0BBF838BD70B504460E46E5207E
:101BA000005D012801D0002070BDDC20055B691CB0
:101BB0003046FEF7ADFBE02001592A463046FEF7DD
:101BC0008EFB0021E52001552846EDE770B504465F
:101BD0000D461646FF2332462946204601F0FAF804
:101BE00070BD704770470146002291F8210002281D
:101BF00008D00420886300BF002081F8200000BFC7
:101C0000012070470868006820F00E000B6818601B
:101C10000868006820F001000B68186091F84030F7
:101C200001209840CB6B5860012081F8210000BF53
:101C3000002081F8200000BF1046E2E701460022A4
:101C400009B9012070471E4B086898420BD21D4B02
:101C50000868C01A1423B0FBF3F080000864194828
:101C60000838C8630AE0164B0868C01A1423B0FB92
:101C7000F3F08000086412480838C863022081F835
:101C800021000868026843F6F0708243D1E901033D
:101C90001843CB6818430B6918434B6918438B6989
:101CA0001843CB6918430243086802600020886328
:101CB000012081F82100002081F8200000BFC1E749
:101CC00008040240080002402DE9F04104460D4698
:101CD00016461F464FF0000800BF94F82000012868
:101CE00002D10220BDE8F081012084F8200000BF6D
:101CF00094F8210001282CD1022084F82100002032
:101D0000A0632068006820F00100216808603B465D
:101D1000324629462046FFF7D2FCE06A30B12068FF
:101D2000006840F00E00216808600BE02068006841
:101D300020F00400216808602068006840F00A0074
:101D4000216808602068006840F001002168086090
:101D500006E000BF002084F8200000BF4FF002081A
:101D60004046BFE72DE9F847024600239C467BE149
:101D70004FF0010808FA03F4D1F8008008EA0400E3
:101D8000A0427DD1DFF8F4A2D1F80480A8EB0A09C3
:101D9000D0453AD014DCB8F1030F50D009DCB8F1CB
:101DA000000F31D0B8F1010F1CD0B8F1020F49D1AA
:101DB00020E0B8F1110F18D0B8F1120F42D11EE097
:101DC000B9F5881F25D006DCB9F5803F20D0B9F5DC
:101DD000801F37D11AE0B9F5001F18D0B9F5041FDC
:101DE00030D117E0D1F80CC02DE0D1F80C8008F10B
:101DF000040C28E0D1F80C8008F1080C23E0D1F89D
:101E00000C8008F10C0C1EE000BF00BF00BF00BF3B
:101E100000BF00BFD1F80880B8F1000F02D14FF029
:101E2000040C0BE0D1F80880B8F1010F03D14FF09A
:101E3000080C146102E04FF0080C546103E04FF00D
:101E4000000C00E000BF00BFFF2801D8904601E071
:101E500002F104084646FF2802D84FEA830803E04F
:101E6000A3F108084FEA88084746D6F800804FF0EB
:101E70000F0909FA07F928EA09080CFA07F900E03E
:101E80007AE048EA0908C6F80080D1F8048008F032
:101E90008058B8F1805F6FD100BFDFF8E481D8F8D7
:101EA000188048F00108DFF8D891C9F81880C846B2
:101EB000D8F8188008F00108CDF8008000BF00BFF6
:101EC0004FEAB9384FEA930958F829504FEA837816
:101ED0004FEA18794FF00F0808FA09F825EA0805C3
:101EE000DFF8A081424502D14FF0000824E0DFF87E
:101EF0009881424502D14FF001081DE0DFF88C8146
:101F0000424502D14FF0020816E0DFF884814245D5
:101F100002D14FF003080FE0DFF87881424502D18B
:101F20004FF0040808E0DFF87081424502D14FF01D
:101F3000050801E04FF006084FEA83794FEA197966
:101F400008FA09F848EA0505DFF850814FEA9309D5
:101F500048F82950D1F8048008F48038B8F5803F5B
:101F60000BD1DFF83C81D8F8008048EA0008DFF8A0
:101F70003091C9F800800AE075E0DFF82481D8F8D4
:101F8000008028EA0008DFF81891C9F80080D1F82D
:101F9000048008F40038B8F5003F0ED1DFF8008166
:101FA00008F10408D8F8008048EA0008DFF8F0904B
:101FB00009F10409C9F800800DE0DFF8E48008F1B8
:101FC0000408D8F8008028EA0008DFF8D49009F166
:101FD0000409C9F80080D1F8048008F48018B8F525
:101FE000801F0ED1DFF8B88008F10808D8F800800B
:101FF00048EA0008DFF8A89009F10809C9F800804C
:102000000DE0DFF89C8008F10808D8F8008028EA85
:102010000008DFF88C9009F10809C9F80080D1F8B0
:10202000048008F40018B8F5001F0ED1DFF87080A6
:1020300008F10C08D8F8008048EA0008DFF8609042
:1020400009F10C09C9F800800DE0DFF8548008F1AF
:102050000C08D8F8008028EA0008DFF8449009F15D
:102060000C09C9F800805B1CD1F8008028FA03F83D
:10207000B8F1000F7FF47CAEBDE8F88700001110C6
:102080000010024000080140000C01400010014017
:102090000014014000180140001C014008000140EC
:1020A00000040140024693680B400BB1012000E0A0
:1020B000002070470AB1016101E00B040361704721
:1020C0000148006870470000680B002010B5084800
:1020D000006840F0100006490860032000F0D2F8C4
:1020E000002000F007F800F02BF8002010BD0000E1
:1020F0000020024070B504460E4800784FF47A7113
:10210000B1FBF0F00C490968B1FBF0F5284600F08E
:1021100049FC08B1012070BD102C07D200222146D5
:10212000501E00F071F80548046001E00120F2E75C
:102130000020F0E7700B0020740B00206C0B0020D7
:1021400008B5032000F09EF800BF2548806940F0E4
:102150000100234988610846806900F00100009071
:1021600000BF00BF00BF0846C06940F08050C86192
:102170000846C06900F08050009000BF00BF0022F8
:1021800011466FF00B0000F03FF8002211466FF08F
:102190000A0000F039F8002211466FF0090000F043
:1021A00033F800221146501F00F02EF8002211468D
:1021B000101F00F029F800220F21901E00F024F8D3
:1021C00000220F21501E00F01FF800BF054948688B
:1021D00020F0E06040F00070486000BF08BD0000E3
:1021E000001002400000014001460846002809DBBB
:1021F00000F01F0301229A4043099B0003F1E023F2
:10220000C3F8002100BF70472DE9F05F80460D46FE
:102210001646002703F090FE074639462A46334605
:1022200001F00700C0F1070ABAF1040F02D94FF01C
:10223000040A01E0C0F1070AD14600F1040ABAF12C
:10224000070F02D24FF0000A01E0A0F1030AD446C2
:102250004FF0010A0AFA09FAAAF1010A0AEA020A87
:102260000AFA0CFA4FF0010B0BFA0CFBABF1010B65
:102270000BEA030B4AEA0B042146404603F064FED6
:10228000BDE8F09F00BF00F00702064B19684FF64B
:10229000FF031940044B0B4343EA0221014B196031
:1022A00000BF70470CED00E00000FA0570B5044671
:1022B0000D460CB9012070BD5A48006800F00700B7
:1022C000A8420ED25748006820F00700284355491D
:1022D00008600846006800F00700A84201D001200D
:1022E000E9E7207800F0020002281DD1207800F0F4
:1022F0000400042805D14C48406840F4E0604A4995
:102300004860207800F00800082805D14648406859
:1023100040F46050444948604348406820F0F00071
:10232000A168084340494860207800F0010078B374
:102330006068012806D13C48006800F4003090B97C
:102340000120B8E76068022806D13748006800F02D
:10235000007040B90120AEE73348006800F0020089
:1023600008B90120A7E73048406820F00300616801
:1023700008432D494860FFF7A3FE064609E0FFF732
:102380009FFE801B41F28831884202D9032092E7E8
:1023900007E02548406800F00C006168B0EB810F51
:1023A000EDD12048006800F00700A8420ED91D4872
:1023B000006820F0070028431A49086008460068B2
:1023C00000F00700A84201D0012074E7207800F057
:1023D0000400042807D11448406820F4E060E16854
:1023E000084311494860207800F00800082808D107
:1023F0000D48406820F46050216940EAC1000A4954
:10240000486000F03FF808494968C1F30311074AE2
:10241000515CC8400649086006480068FFF76AFE3C
:10242000002048E70020024000100240B58D00085F
:10243000740B00206C0B00200148006870470000FE
:10244000740B002000B5FFF7F7FF04494968C1F39A
:102450000221034A515CC84000BD00000010024048
:10246000C58D000800B5FFF7E7FF04494968C1F3CF
:10247000C221034A515CC84000BD00000010024068
:10248000C58D0008F0B585B00FF26C0C9CE8E0102B
:1024900001A8A0E8E0101CA52D68009500210022ED
:1024A000002300240020194D696801F00C05F5B1E6
:1024B000042D02D0082D19D101E0154819E001AD15
:1024C000C1F38346AC5D01F4803555B10F4D6D68A5
:1024D000C5F340451DF805200D4D6543B5FBF2F3EE
:1024E00002E00C4D04FB05F3184602E000BF08486B
:1024F00000BF00BF05B0F0BD0203040506070809D0
:102500000A0B0C0D0E0F101001020000001002400B
:1025100000127A0000093D00F8B504460CB901200C
:10252000F8BD207800F00100002878D0F848406815
:1025300000F00C0004280CD0F548406800F00C00B6
:10254000082811D1F248406800F48030B0F5803F8F
:102550000AD1EF48006800F4003000285FD06068BE
:1025600000285CD10120DBE700BF6068B0F5803F48
:1025700006D1E748006840F48030E549086028E06B
:10258000606858B9E248006820F48030E04908608B
:102590000846006820F4802008601AE06068B0F502
:1025A000A02F0BD1DA48006840F48020D849086099
:1025B0000846006840F4803008600AE0D4480068AB
:1025C00020F48030D24908600846006820F480205A
:1025D000086000BF606888B1FFF772FD054606E03D
:1025E000FFF76EFD401B642801D9032098E7C84817
:1025F000006800F400300028F2D010E0FFF760FD22
:10260000054606E0FFF75CFD401B642801D9032066
:1026100086E7BF48006800F400300028F2D1207837
:1026200000F00200022857D1B948406800F00C00C1
:1026300050B1B748406800F00C00082818D1B448E1
:10264000406800F4803098B9B148006800F002009A
:1026500020B12069012801D0012061E7AC48006861
:1026600020F0F800616940EAC100A949086033E040
:102670002069E8B10120A7490860FFF721FD054660
:1026800006E0FFF71DFD401B022801D9032047E7A4
:102690009F48006800F002000028F2D09C480068C3
:1026A00020F0F800616940EAC1009949086013E030
:1026B000002098490860FFF703FD054606E0FFF794
:1026C000FFFC401B022801D9032029E7904800683D
:1026D00000F002000028F2D1207800F0080008285D
:1026E0002DD1A069B8B101208B490860FFF7E8FC43
:1026F000054606E0FFF7E4FC401B022801D9032051
:102700000EE78348406A00F002000028F2D0012062
:1027100001F0D2F813E000207F490860FFF7D0FCF9
:10272000054606E0FFF7CCFC401B022801D9032038
:10273000F6E67748406A00F002000028F2D12078DF
:1027400000F00400042873D100277148C06900F02C
:10275000805070B900BF6E48C06940F080506C492D
:10276000C8610846C06900F08050009000BF00BFFB
:1027700001276A48006800F48070B0B967480068B3
:1027800040F4807065490860FFF79AFC054606E052
:10279000FFF796FC401B642801D90320C0E65F4880
:1027A000006800F480700028F2D000BFE0680128C3
:1027B00006D15748006A40F001005549086227E0F9
:1027C000E06858B95248006A20F001005049086298
:1027D0000846006A20F00400086219E0E068052855
:1027E0000BD14B48006A40F0040049490862084692
:1027F000006A40F0010008620AE04548006A20F0E3
:102800000100434908620846006A20F0040008629B
:1028100000BFE068A0B1FFF753FC054609E0FFF7F1
:102820004FFC401B41F28831884202D9032077E6F1
:1028300022E03748006A00F002000028EFD012E0E2
:10284000FFF73EFC054608E0FFF73AFC401B41F26B
:102850008831884201D9032062E62D48006A00F0E1
:1028600002000028F0D1012F05D12948C06920F0CD
:1028700080502749C86100BFE069C8B32448406858
:1028800000F00C00082860D0E069022848D1002040
:1028900020490866FFF714FC054606E0FFF710FC28
:1028A000401B022801D903203AE61948006800F0CD
:1028B00000700028F2D1206AB0F5803F07D114489B
:1028C000406820F40030A168084311494860D4E909
:1028D000080108430E49496821F4741108430C4962
:1028E000486001200B490866FFF7EAFB054607E050
:1028F0003DE0FFF7E5FB401B022801D903200FE66E
:102900000348006800F000700028F2D02FE00000BB
:102910000010024000004242800442420070004029
:10292000002014490866FFF7CBFB054606E0FFF7D9
:10293000C7FB401B022801D90320F1E50E480068BF
:1029400000F000700028F2D111E0E069012800D108
:10295000E6E50948466806F48031206A814204D1E0
:1029600006F47011606A814201D00120D8E5002090
:10297000D6E500000000424200100240042808D1C1
:102980004FF0E021096941F004014FF0E0221161AC
:1029900007E04FF0E021096921F004014FF0E02247
:1029A0001161704770B504462546681EB0F1807FFE
:1029B00001D301200FE0681E4FF0E02148610F2194
:1029C0004FF0FF3003F0C0FA00204FF0E0218861A3
:1029D00007200861002070BD70B504460D461646FC
:1029E00000BF94F83C00012801D1022070BD0120F5
:1029F00084F83C0000BF36B1042E1BD0082E31D025
:102A00000C2E5ED145E02946206802F013FA2068BA
:102A1000806940F00800216888612068806920F0A2
:102A20000400216888612068806929690843216859
:102A3000886147E02946206802F034FA20688069FE
:102A400040F40060216888612068806920F480601B
:102A50002168886120688069296940EA012021682D
:102A600088612FE02946206802F05AFA2068C06980
:102A700040F008002168C8612068C06920F00400A7
:102A80002168C8612068C069296908432168C86154
:102A900018E02946206802F07FFA2068C06940F4F7
:102AA00000602168C8612068C06920F480602168E6
:102AB000C8612068C069296940EA01202168C861AD
:102AC00000E000BF00BF00BF002084F83C0000BF52
:102AD00000BF8BE710B504460CB9012010BD94F877
:102AE0003D0028B9002084F83C00204600F025F87D
:102AF000022084F83D00211D206802F03BF90120EE
:102B000084F8460000BF84F83E0001213F200155B3
:102B1000402001554120015500BF00BF012084F82D
:102B2000420043200155442001554520015500BF76
:102B3000012084F83D000020D0E7704770B50446BE
:102B40000D4615B994F83E000BE0042D02D13F204C
:102B5000005D06E0082D02D14020005D01E041202B
:102B6000005D012801D0012070BD1DB9022084F84C
:102B70003E000EE0042D03D102213F20015508E064
:102B8000082D03D102214020015502E002214120FD
:102B9000015501222946206802F03AF91F492068B0
:102BA000884203D01E492068884201D1012000E0FC
:102BB000002028B12068406C40F40040216848643F
:102BC00016492068884213D01549206888420FD0E2
:102BD0002068B0F1804F0BD012492068884207D09E
:102BE00011492068884203D01049206888420CD1DE
:102BF0002068806800F00706062E0CD02068006868
:102C000040F001002168086005E02068006840F09D
:102C10000100216808600020A6E70000002C0140A8
:102C2000003401400004004000080040000C004057
:102C300070B50446002520684069C0F3C01594F8BB
:102C4000390021280ED16DB12068406920F0800044
:102C500021684861206B10B1206BFEF7C4FF20464D
:102C600002F037FF20684069C0F3801594F83A00FD
:102C700022280ED16DB12068406920F04000216803
:102C80004861606B10B1606BFEF7ADFF204602F04B
:102C900010FF002070BD704710B504460CB901202C
:102CA00010BDA06900B100E000BF94F8390028B958
:102CB000002084F83800204600F027F8242084F80B
:102CC00039002068C06820F400502168C8602046A0
:102CD00002F00AFF2068006920F490402168086132
:102CE0002068406920F02A00216848612068C06897
:102CF00040F400502168C8600020E063202084F880
:102D0000390084F83A000020CAE7704777B581B0EF
:102D10000446154694F83A00202850D1029800B194
:102D200015B9012004B070BD00BF94F83800012827
:102D300001D10220F6E7012084F8380000BF029894
:102D4000A062A5850020E063222084F83A001D4897
:102D5000616B88621C48616BC8621C48616B0863C8
:102D60000020616B486302AE32682368191D2B4650
:102D7000606BFEF7A9FF00BF00200090206800688C
:102D8000009020684068009000BF00BF00BF002096
:102D900084F8380000BF2068C06840F48070216863
:102DA000C8602068406940F00100216848612068DF
:102DB000406940F04000216848610020B2E70220ED
:102DC000B0E700005F5A0008A55A00080F5A000833
:102DD000704770472DE9F84F04460E46174699464E
:102DE0004FF0000A94F8390020285AD106B117B9DB
:102DF0000120BDE8F88F00BF94F83800012801D108
:102E00000220F6E7012084F8380000BF0020E063CC
:102E1000212084F83900FFF753F98246A784E7841C
:102E2000A068B0F5805F04D1206910B90025B046D4
:102E300002E035464FF0000800BF002084F838005B
:102E400000BF1BE05346002280212046CDF80090B1
:102E500002F0C8FE08B10320CBE745B9B8F800007E
:102E6000C0F308002168486008F1020803E02878F0
:102E7000216848606D1CE08C401EE084E08C0028D6
:102E8000E0D15346002240212046CDF8009002F0C8
:102E9000A9FE08B10320ACE7202084F83900002007
:102EA000A7E70220A5E7000092B043E0002320221C
:102EB0000AA92148006804F093FB002837D11FA11C
:102EC0000AA804F06DFF00BB08E00023142205A946
:102ED0001D48006804F084FB00B100E0F5E700BF86
:102EE00002F004FD19A003F017F803F00BFF05F042
:102EF00085F9044605F0C0F91A48006805F054F950
:102F000003F010FF04F08CFD11E00EA80FC88DE84F
:102F10000F000AA80FC802F097FB4FF4FA70FEF7F3
:102F200025FC002002F022FD032002F01FFD0120FD
:102F3000FEF71CFCBAE700002C0000204155544F5E
:102F400020535441525400002800002053776974E4
:102F5000636820746F204155544F204D6F64650D98
:102F60000A000000100000201FB535E04FF0FF31CF
:102F70001A48006804F050FE48BB194800F09CF95C
:102F800028B3174800F09AF81548B0F82A0100F461
:102F90000060E0B11249D1F87001FDF764FC04460D
:102FA0000D460F49D1F86C01FDF75DFC06460F4652
:102FB0000B49D1F86801FDF756FC804642460B46A6
:102FC00008A0CDE90067CDE9024502F0A5FF012088
:102FD000FEF7CCFB05F0B0F9C8E7000024000020A4
:102FE000A40300204A20416E676C6520252E3366BD
:102FF00020252E336620252E33660D0A00000000A2
:103000001DE00F4800F042FA0D490869FDF72BFC5E
:10301000044600220B4BFDF739FC02D10020084981
:10302000086107490869FDF71EFC044622460B4665
:1030300005A002F071FF4FF41670FEF797FBE0E772
:1030400044050020F2B102414D2025302E32660D9C
:103050000A00000000BFFEE700BFFEE71CB5044603
:1030600006A103C9CDE9000140F22D10005D8DF8E5
:1030700003006946204600F07FFE1CBDFFAA240025
:103080000000000010B50446204600F003FE204674
:10309000FEF70EFD204600F0B7F9204600F0C8F913
:1030A000204600F0D9F9204600F09AF92046FFF7B3
:1030B000D5FF0021204600F081F910BD70B504460F
:1030C0004FF49570005B00F4007090B3B4F93801D0
:1030D000FDF75FFB06464FF08E41FDF73BFA0546D4
:1030E0004FF08341FDF704FA4FF4A0710851B4F991
:1030F0003A01FDF74EFB06464FF08E41FDF72AFAE6
:1031000005464FF08341FDF7F3F94FF4A2710851E2
:10311000B4F93C01FDF73DFB06464FF08E41FDF74B
:1031200019FA05464FF08341FDF7E2F94FF4A47117
:1031300008514FF49570005B00F4806078B3B4F9E7
:103140004C01FDF726FB06464FF08E41FDF702FAD3
:1031500005465749FDF7CCF94FF4AA710851B4F967
:103160004E01FDF716FB06464FF08E41FDF7F2F9D2
:1031700005464F49FDF7BCF94FF4AC710851B4F95D
:103180005001FDF706FB06464FF08E41FDF7E2F9D0
:1031900005464749FDF7ACF94FF4AE7108514FF4BD
:1031A0009570005B00F4006078B3B4F96001FDF73E
:1031B000F0FA06464FF08E41FDF7CCF905463D4941
:1031C000FDF796F94FF4B4710851B4F96201FDF7B7
:1031D000E0FA06464FF08E41FDF7BCF90546354949
:1031E000FDF786F94FF4B6710851B4F96401FDF7A3
:1031F000D0FA06464FF08E41FDF7ACF905462D4951
:10320000FDF776F94FF4B87108514FF49570005BF3
:1032100000F48050A0B1B4F97401FDF7BAFA4FF48C
:10322000BE710851B4F97601FDF7B3FA4FF4C071DD
:103230000851B4F97801FDF7ACFA4FF4C2710851A6
:103240004FF49570005D00F0020078B3B4F9880186
:10325000FDF79FFA05464FF08E41FDF77BF94FF4DD
:10326000C8710851B4F98A01FDF793FA05464FF089
:103270008E41FDF76FF94FF4CA710851B4F98C0112
:10328000FDF787FA05464FF08E41FDF763F94FF4DD
:10329000CC710851B4F98E01FDF77BFA05464FF069
:1032A0008E41FDF757F94FF4CE71085170BD000003
:1032B0000000FA440000344330B50146E520405C8C
:1032C000002879D000206DE0E0225258125C552A87
:1032D00066D10023002206E0E02464588518645D6E
:1032E0001C44E3B2521C0A2AF6DBE022545800F1D7
:1032F0000A02A25C9A4251D1E0225458421CA25CBC
:10330000503A0A2A48D2DFE802F005101B2631475E
:103310004747473CE0225458821C14442568C1F8B2
:103320002E516468C1F8324137E0E0225458821CC3
:1033300014442568C1F838516468C1F83C412CE058
:10334000E0225458821C14442568C1F84C5164682A
:10335000C1F8504121E0E0225458821C14442568F1
:10336000C1F860516468C1F8644116E0E022545825
:10337000821C14442568C1F874516468C1F878410E
:103380000BE0E0225458821C14442568C1F888518F
:103390006468C1F88C4100E000BF00E001E000BFBC
:1033A00000BF401CDC22525A82428DDC0022E52004
:1033B0004254012030BDFFE70020FBE77CB5054605
:1033C0000C4605A103C9CDE900018DF8034069460B
:1033D000284600F0D1FC7CBDFFAA6300000000007D
:1033E0001CB5044606A103C9CDE900014FF496704F
:1033F000005D8DF803006946204600F0BDFC1CBD51
:10340000FFAA2300000000001CB5044606A103C962
:10341000CDE9000194F828018DF8030069462046A3
:1034200000F0AAFC1CBD0000FFAA04000000000080
:103430001CB5044606A103C9CDE9000140F22910DC
:10344000005D8DF803006946204600F095FC1CBD28
:10345000FFAA0300000000001CB5044609A103C92F
:10346000CDE900014FF49570005B00128DF8030068
:103470004FF49570005D8DF804006946204600F019
:103480007BFC1CBDFFAA0200000000002DE9FC5FD0
:1034900082469AF81800062852D2DFE800F003109E
:1034A0001D2A37444021504600F02AFDE3490860B8
:1034B0005021504600F024FDE149086040E04221DF
:1034C000504600F01DFDDD4908605221504600F0D5
:1034D00017FDDB49086033E04421504600F010FD41
:1034E000D64908605421504600F00AFDD4490860CE
:1034F00026E04621504600F003FDD04908605621E1
:10350000504600F0FDFCCE49086019E048215046C5
:1035100000F0F6FCC94908605821504600F0F0FC64
:10352000C74908600CE04A21504600F0E9FCC34955
:1035300008605A21504600F0E3FCC149086000BF12
:1035400000BFBF49DAF830000968A1EB0020BD498F
:1035500008600022DAF834000968CB17A0FB0147A5
:1035600002FB017100FB03114FF40002002320460F
:10357000FCF774FE4FF4FA614018B34908604FF04D
:103580000002B048DAF8281000684FEAE073A1FBA7
:10359000004702FB007001FB03014FF480724FF003
:1035A00000032046FCF75AFE4FF40043DAF82020CF
:1035B000A2FB0332C0185141A44A03C20023A1490F
:1035C000DAF82C000968CA17A0FB014703FB017158
:1035D00000FB021180222046FCF740FE4FF48033AE
:1035E000DAF82420A2FB0332C0185141984A03C2E2
:1035F00095480068642190FBF1F42046FDF7C9F876
:10360000CAF800008D48006800229049D1E9003CCA
:10361000A0FB036B02FB03B200FB0C214FF4001272
:1036200000233046FCF71AFE894AD2E90032B0EB9B
:10363000030861EB02014FF4005200234046FCF7FF
:103640000DFE0A220023CDE90001FCF707FE044627
:10365000FDF7ADF8CAF804007B480068B0F5FA6FD2
:103660005CDA03207749096880FB013175480068FE
:10367000C217A3FB004701FB007003FB02010022FD
:1036800002232046FCF7EAFD724908606E4909688A
:10369000A1F5FA6101EB41016B4A1268A2F5FA62E9
:1036A00001FB02F000EBD07149106B4A11606649D2
:1036B0000968A1F5FA6101EB8101634A1268A2F57C
:1036C000FA6201FB02F0C11700EB5171C910634AA5
:1036D00011605D480068624988423EDA5A480068D5
:1036E00000F2DC50C0EBC0015748006800F2DC502B
:1036F000594A126801FB0020574908605248006887
:1037000000F2DC5081005048006800F2DC50534A5F
:10371000126801FB0020514908601EE0494800681A
:1037200040434000C117044600222023FCF796FDC9
:103730004849086044490968A1F5FA61424A12689B
:10374000A2F5FA6201FB02F0C11700EB1171091139
:10375000414A11600020414908603D48D0E90031EC
:103760003D480068C217181A61EB02013D4A03C2C6
:103770003648D0E9003039490968CA17591A60EB50
:103780000200394AC2E900102C48006800231146A3
:10379000D1E90021A0FB026B03FB02B201FB002177
:1037A0004FF400123046FCF759FD2E4B0CCB841A17
:1037B00061EB03012046FCF7FAFF81464FF08C4194
:1037C000FCF7C8FE80462949FCF7C4FECAF80C0085
:1037D0001D4909681F4A1268881AFCF7DAFF8046FB
:1037E000FDF741F806460022214BFCF763FF044633
:1037F000FDF77CF8CAF80800DAF80800CAF81400E7
:103800001C49DAF80C00FCF76DFE1B490190FCF72F
:10381000A1FE8346FDF727F88046184A184BFCF7AF
:10382000D7FE06460022124BFCF7D2FE0446FDF7F7
:103830005DF8CAF81000BDE8FC9F0000100A0020E7
:10384000140A0020F8090020FC090020080A0020C2
:10385000000A0020200A0020180A00201C0A00206C
:1038600024FAFFFF280A0020300A0020000020412F
:103870000000594000407D4400007A449A9999998B
:103880009999234010B5044604F13800FEF70CF86E
:10389000204600F0A2FB1420FDF768FF204600F050
:1038A000D6FA1420FDF762FF204600F083FA08B92B
:1038B000002010BD0120FCE708B508490968C908C7
:1038C0004FF47A72B1FBF2F14143009100BF00BFA7
:1038D00000994A1E00920029F9D108BD740B0020FE
:1038E00008B50DE007488088009006484388C288E4
:1038F000018805A002F010FB4FF47A70FDF736FF47
:10390000F0E70000EC090020542025642025642005
:1039100025642025640D0A007047000008B52D4A73
:10392000016991420DD100BF2B49896941F0040121
:10393000294A91611146896901F00401009100BF93
:1039400047E0264A016991420DD100BF22498969A9
:1039500041F00801204A91611146896901F008018E
:10396000009100BF35E01E4A016991420DD100BFB0
:103970001949896941F01001174A91611146896915
:1039800001F01001009100BF23E0164A0169914245
:103990000DD100BF1049896941F020010E4A9161A3
:1039A0001146896901F02001009100BF11E00E4A23
:1039B000016991420DD100BF0749896941F0400179
:1039C000054A91611146896901F04001009100BFEB
:1039D00000BF08BD0008014000100240000C01407B
:1039E00000100140001401400018014010B50446C9
:1039F0002068012808D1627D217D0620FEF704FCA5
:103A00000620FEF7F1FB69E02068022808D1627DFC
:103A1000217D0720FEF7F8FB0720FEF7E5FB5DE0C0
:103A20002068042808D1627D217D0820FEF7ECFB88
:103A30000820FEF7D9FB51E02068082808D1627DF4
:103A4000217D0920FEF7E0FB0920FEF7CDFB45E0D4
:103A50002068102808D1627D217D0A20FEF7D4FB62
:103A60000A20FEF7C1FB39E0206820280DD020682D
:103A700040280AD02068802807D02068B0F5807FD1
:103A800003D02068B0F5007F08D1627D217D17202A
:103A9000FEF7BAFB1720FEF7A7FB1FE02068B0F582
:103AA000806F13D02068B0F5006F0FD02068B0F59C
:103AB000805F0BD02068B0F5005F07D02068B0F5BC
:103AC000804F03D02068B0F5004F07D1627D217D83
:103AD0002820FEF799FB2820FEF786FB10BD10B5C5
:103AE000044621462069FEF73DF910BD00B58FB0B0
:103AF000282105A8FCF70CFC14216846FCF708FCFB
:103B000001200590000406900020079001200990F4
:103B100002200C90C1030D914FF4E0110E9105A805
:103B2000FEF7FAFC08B100BFFEE70F20009002206C
:103B30000190002002904FF48060039000200490D8
:103B400002216846FEF7B2FB08B100BFFEE70FB0E6
:103B500000BD10B5FEF770FC4FF47A71B0FBF1F4C4
:103B60002046FEF71FFF0420FEF708FF00220F216A
:103B7000501EFEF749FB10BD10B504462046FDF768
:103B8000FBFD10BD10B50446228B91B2A06AFEF772
:103B900089FA10BD10B50446228891B2012220692D
:103BA000FEF788FA10BD10B50446228891B20022B3
:103BB0002069FEF77FFA10BD10B50446228B91B242
:103BC0000122A06AFEF776FA10BD1FB50446002058
:103BD0000090019002900390A06900900020019055
:103BE0000290032003906946A06AFEF7BBF81FBD50
:103BF00010B50446228B91B20022A06AFEF75AFA51
:103C000010BD1FB504460020009001900290039063
:103C1000A0690090012001900020029003200390F1
:103C20006946A06AFEF79EF81FBD10B504462046FF
:103C3000FFF7B9FF2046FFF7E4FF2046FFF7D8FF64
:103C40000220FFF799FF2046FFF7A4FF0220FFF7AD
:103C500093FF2046FFF7A7FF10BD10B5044620468E
:103C6000FFF7A1FF2046FFF7CCFF2046FFF7A4FF98
:103C70000220FFF781FF2046FFF78CFF0220FFF7AD
:103C80007BFF2046FFF78FFF10BD10B51420FDF716
:103C90006DFD10BD90F828110A292ED2DFE801F041
:103CA00005090D1115191D2125294FF416614160D3
:103CB00023E04FF4965141601FE04FF416514160EC
:103CC0001BE04FF49641416017E04FF4164141600C
:103CD00013E04FF4614141600FE04FF4E131416086
:103CE0000BE04FF46131416007E04FF4E1214160A6
:103CF00003E04FF46121416000BF00BF00BF0168D5
:103D000009B90849016000BF074A0168914207D01C
:103D100000BF90F8C91011B9012280F8C92000BF76
:103D20007047000000440040005000407CB505464C
:103D30000C460FA103C9CDE9000124B1012C06D026
:103D4000FF2C0CD107E000208DF8030008E00120D3
:103D50008DF8030004E0FF208DF8030000BF00BFD2
:103D600000BF052269462846FDF730FF7CBD0000F4
:103D7000FFAA00000000000070B504460D46204672
:103D800000F00EF8FFF781FF052229462046FDF7D7
:103D90001DFFFFF77AFF00212046FFF7C7FF70BD28
:103DA00010B50446052202492046FDF70FFF10BD5D
:103DB000848C0008F0B588B0044600210026002756
:103DC000002306E004F11C0050F823004DF8230006
:103DD0005B1C072BF6DB0098C0F30B000090002063
:103DE0000790002224E0104602EBD07C4FEA6C0CD6
:103DF000A2EB4C0CBCF1010F04D150101DF82000B7
:103E0000414005E050105DF82000C0F30F20414014
:103E100008250AE001F4004020B14FF4405080EA48
:103E2000410100E04900681EC5B2002DF2DC521CC1
:103E3000102AD8DBC1F303310E46E069C0F307371F
:103E4000BE4202D1012008B0F0BD0020FBE72DE901
:103E5000F0410446204600F0C0F81420FDF786FC2F
:103E6000002549E004F13800FDF77DFDEC2104F167
:103E70003800FDF74DFD04F13800FDF7A4FDA0204A
:103E800000EB4500C1B204F13800FDF741FD04F13B
:103E90003800FDF798FD04F13800FDF77CFD0520A2
:103EA000FDF76AFC04F13800FDF75DFDED2104F13A
:103EB0003800FDF72DFD0520FDF75EFC04F138000C
:103EC000FDF781FD012104F13800FDF7F4FC064601
:103ED0000520FDF751FC002104F13800FDF7EBFC53
:103EE000074604F13800FDF756FD47EA062104F1C4
:103EF0001C0040F825106D1C072DB3DBBDE8F081D8
:103F0000F8B504460E46002504F13800FDF72BFDF8
:103F1000EC2104F13800FDF7FBFC04F13800FDF75B
:103F200052FD314604F13800FDF7F2FC04F138008F
:103F3000FDF749FD04F13800FDF72DFD0A20FDF7DE
:103F400015FC04F13800FDF70EFDEC2104F13800FA
:103F5000FDF7DEFC04F13800FDF735FD002104F12A
:103F60003800FDF7D5FC04F13800FDF72CFD04F115
:103F70003800FDF710FD04F13800FDF7F4FCED21E9
:103F800004F13800FDF7C4FC04F13800FDF71BFD17
:103F9000012104F13800FDF78EFC8DF800000121AD
:103FA00004F13800FDF787FC8DF80100002104F1D1
:103FB0003800FDF780FC8DF8020004F13800FDF7B1
:103FC000EAFC9DF800509DF8010000EB05259DF8E6
:103FD000020000EB05252846F8BD10B5044604F1A3
:103FE0003800FDF7C0FCEC2104F13800FDF790FC2F
:103FF00004F13800FDF7E7FC1E2104F13800FDF75D
:1040000087FC04F13800FDF7DEFC04F13800FDF711
:10401000C2FC10BD08B5364A016891420DD100BFFF
:104020003449896941F40061324A916111468969D4
:1040300001F40061009100BF59E00168B1F1804FC7
:104040000DD100BF2B49C96941F00101294AD16155
:104050001146C96901F00101009100BF47E0264AFD
:10406000016891420DD100BF2249C96941F00201A6
:10407000204AD1611146C96901F00201009100BFD7
:1040800035E01E4A016891420DD100BF1949C96946
:1040900041F00401174AD1611146C96901F00401D8
:1040A000009100BF23E0164A016891420DD100BF84
:1040B0001049C96941F008010E4AD1611146C96928
:1040C00001F00801009100BF11E00E4A0168914221
:1040D0000DD100BF0749896941F40051054A91613A
:1040E0001146896901F40051009100BF00BF08BD6D
:1040F000002C014000100240000400400008004075
:10410000000C00400034014038B5044602216167CC
:104110000121A1670321E16700BF8248806940F067
:104120000100804988610846806900F00100009024
:1041300000BF00BF7C492068884230D18620005DE6
:1041400048B900BF7949486820F0C00040F0E060FD
:1041500000BF4860E0E08620005D01280AD100BF72
:104160007249486820F0C00040F0E06040F0400034
:104170004860D1E08620005D022801D100BFFEE743
:104180008620005D0328E5D100BF6849486820F01B
:10419000C00040F0E06040F0C0004860BCE0206833
:1041A000B0F1804F39D18620005D48B900BF5F492A
:1041B000486820F4407040F0E06000BF4860ABE029
:1041C0008620005D01280AD100BF5849486820F4C4
:1041D000407040F0E06040F4807048609CE08620D1
:1041E000005D02280AD100BF5049486820F44070A1
:1041F00040F0E06040F4007048608DE08620005D93
:104200000328A7D100BF4949486820F4407040F016
:10421000E06040F4407048607EE045492068884294
:1042200030D18620005D48B900BF4049486820F47D
:10423000406040F0E06000BF48606DE08620005DB7
:1042400001280AD100BF3949486820F4406040F095
:10425000E06040F4006048605EE08620005D022877
:1042600001D100BFFEE78620005D032854D100BFC6
:104270002E49486820F4406040F0E06040F440601F
:10428000486049E02B492068884224D18620005D9F
:1042900040B900BF2549486840F0E06020F48050F4
:1042A000486039E08620005D012801D100BFFEE7AB
:1042B0008620005D022801D100BFFEE78620005D58
:1042C000032829D100BF1949486840F0E06040F454
:1042D0008050486020E01849206888421CD194F83A
:1042E0006C000C2818D18620005D40B900BF0F4932
:1042F000486840F0E06020F4803048600CE08620A0
:10430000005D032808D100BF0849486840F0E0601C
:1043100040F48030486000BF012104F17000FDF7D7
:1043200053FA38BD00100240002C0140000001404B
:104330000004004000080040000C00402DE9F0415E
:104340000446472060600021A1602149606EB1FBF6
:10435000F0F0401EE06000212161A1612046FEF7DF
:10436000B9FB18B14A211BA0FDF768FA6020A064D0
:104370001749606EB1FBF0F0A0F101084046FCF770
:1043800011FA0746A16EFCF7B3F806461849FCF788
:10439000E1F80546FCF73AFAE0640021216594F85B
:1043A0006C2004F148012046FEF716FB18B1582195
:1043B00008A0FDF743FA94F86C102046FEF7BEFB08
:1043C00018B15C2103A0FDF739FABDE8F0810000C7
:1043D00040420F002E2E5C4472697665725C537207
:1043E000635C6472765F68616C5F70776D2E6300EA
:1043F0000000C8427047000008B52D4A016891428C
:104400000DD100BF2B49896941F48041294A91614E
:104410001146896901F48041009100BF47E0264AB6
:10442000016891420DD100BF2249C96941F40031B0
:10443000204AD1611146C96901F40031009100BFE1
:1044400035E01E4A016891420DD100BF1949C96982
:1044500041F48021174AD1611146C96901F48021D4
:10446000009100BF23E0164A016891420DD100BFC0
:104470001049C96941F400210E4AD1611146C96948
:1044800001F40021009100BF11E00E4A0168914241
:104490000DD100BF0749C96941F48011054AD161B6
:1044A0001146C96901F48011009100BF00BF08BD29
:1044B0000038014000100240004400400048004025
:1044C000004C00400050004010B5044694F8C9006C
:1044D000012808D104F18400FDF7B0FB18B19D213B
:1044E00008A0FDF7ABF994F8C800012808D104F141
:1044F0004000FDF7A3FB18B1A32102A0FDF79EF930
:1045000010BD00002E2E5C4472697665725C537299
:10451000635C6472765F68616C5F756172742E6350
:104520000000000038B504462949206888420DD1B2
:1045300000BF2848406940F001002649486108460C
:10454000406900F00100009000BF3FE02249206870
:1045500088420DD100BF1F48406940F001001D494D
:1045600048610846406900F00100009000BF2DE05E
:104570001A49206888420DD100BF1648406940F0B2
:104580000100144948610846406900F001000090AC
:1045900000BF1BE01249206888420DD100BF0D48C2
:1045A000406940F002000B4948610846406900F04C
:1045B0000200009000BF09E00A492068884205D146
:1045C000F12109A0FDF73AF900BFFEE738BD000070
:1045D0000038014000100240004400400048004004
:1045E000004C0040005000402E2E5C4472697665FD
:1045F000725C5372635C6472765F68616C5F756154
:1046000072742E630000000010B5044694F8C900CF
:1046100001283AD13D49206888420AD194F8CB203C
:1046200094F8CA100F20FDF7EFFD0F20FDF7DCFD19
:104630002BE03749206888420AD194F8CB2094F8BF
:10464000CA101020FDF7E0FD1020FDF7CDFD1CE0A5
:104650003049206888420AD194F8CB2094F8CA10D7
:104660000D20FDF7D1FD0D20FDF7BEFD0DE02A491F
:104670002068884209D194F8CB2094F8CA103A20D7
:10468000FDF7C2FD3A20FDF7AFFD94F8C800012800
:104690003AD11E49206888420AD194F8CD2094F876
:1046A000CC100E20FDF7B0FD0E20FDF79DFD2BE098
:1046B0001749206888420AD194F8CD2094F8CC108C
:1046C0001120FDF7A1FD1120FDF78EFD1CE0114921
:1046D000206888420AD194F8CD2094F8CC100C20A0
:1046E000FDF792FD0C20FDF77FFD0DE00A492068E3
:1046F000884209D194F8CD2094F8CC103B20FDF7E6
:1047000083FD3B20FDF770FD10BD00000038014027
:104710000044004000480040004C004038B50446CA
:1047200000BF5348806940F0010051498861084644
:10473000806900F00100009000BF00BF4D49206873
:10474000884228D14FF48570005D40B900BF4A49C6
:10475000486840F0E06020F00400486081E04FF4D9
:104760008570005D032808D100BF4349486840F0C8
:10477000E06040F00400486073E04FF48570005D35
:10478000012801D100BFFEE74FF48570005D0228CB
:1047900067D100BFFEE739492068884228D14FF42D
:1047A0008570005D40B900BF3349486840F0E06063
:1047B00020F00800486054E04FF48570005D012847
:1047C00001D100BFFEE74FF48570005D022801D1E2
:1047D00000BFFEE74FF48570005D032841D100BFA4
:1047E0002549486840F0E06040F00800486038E043
:1047F00023492068884234D14FF48570005D48B960
:1048000000BF1D49486820F0300040F0E06000BF64
:10481000486026E04FF48570005D01280AD100BF92
:104820001549486820F0300040F0E06040F010008A
:10483000486016E04FF48570005D022801D100BF8A
:10484000FEE74FF48570005D03280AD100BF0A49D6
:10485000486820F0300040F0E06040F030004860F0
:1048600000BF022104F1F400FCF7AEFF38BD0000E8
:1048700000100240003801400000014000440040A8
:104880000048004010B504462549206888420AD1F6
:1048900094F8252194F824112520FDF7B5FC252056
:1048A000FDF7A2FC3AE01F49206888420AD194F83B
:1048B000252194F824112620FDF7A6FC2620FDF7DB
:1048C00093FC2BE01849206888420AD194F82521EE
:1048D00094F824112720FDF797FC2720FDF784FC8E
:1048E0001CE01249206888420AD194F8252194F8E6
:1048F00024113420FDF788FC3420FDF775FC0DE011
:104900000B492068884209D194F8252194F8241194
:104910003520FDF779FC3520FDF766FC10BD000061
:10492000003801400044004000480040004C004076
:104930000050004010B504462046FEF7ADF918B10E
:104940008F2102A0FCF77AFF10BD00002E2E5C44E0
:1049500072697665725C5372635C6472765F6861DB
:104960006C5F756172742E630000000000BF016807
:1049700009B9C449016000BF00BF416811B94FF4D3
:10498000E131416000BF00BF416909B90C224261B9
:1049900000BF00BF816809B90022826000BF00BF6C
:1049A000C16809B90022C26000BF00BF016909B92E
:1049B0000022026100BF00BF90F8241111B901214B
:1049C00080F8241100BF00BF90F8251111B9032110
:1049D00080F8251100BF90F8C81001295ED1A94ABE
:1049E0000168914202D1A849016415E0A74A016813
:1049F000914203D1A4493C3101640DE0A44A01680D
:104A0000914203D1A0492839016405E0A14A016817
:104A1000914201D1A049016400BF416C09B9102243
:104A2000426400BF00BF816C09B90022826400BFEC
:104A300000BFC16C09B98022C26400BF00BF016D14
:104A400009B90022026500BF00BF416D09B900220B
:104A5000426500BF00BF816D09B90022826500BFB9
:104A600000BFC16D09B90022C26500BF00BF90F848
:104A7000CC1011B9012280F8CC2000BF00BF90F803
:104A8000CD1011B9012280F8CD2000BF00BFEA216E
:104A9000095A11B96422EA210A5200BF90F8C910DC
:104AA000012972D1774A0168914204D1764A1432C1
:104AB00084210A5019E0754A0168914204D1724A72
:104AC000283284210A5010E0714A0168914204D1D1
:104AD0006D4A143A84210A5007E06E4A01689142F7
:104AE00003D16D4A283A84210A5000BF8821095811
:104AF00011B9002288210A5000BF00BF8C2109583B
:104B000011B900228C210A5000BF00BF9021095822
:104B100011B9802290210A5000BF00BF942109588A
:104B200011B9002294210A5000BF00BF98210958F2
:104B300011B9002298210A5000BF00BF9C210958DA
:104B400011B920229C210A5000BF00BFA0210958A2
:104B500011B90022A0210A5000BF00BF90F8CA106E
:104B600011B9012280F8CA2000BF00BF90F8CB1015
:104B700011B9012280F8CB2000BF00BFDE21095A05
:104B800011B96422DE210A5200BFD0F8F41021B11D
:104B90004FF48671095801B170473A4A0168914251
:104BA0000FD14915C0F8F4103C4A4FF482710A50F5
:104BB00012154FF486710A50384A4FF48E710A501C
:104BC0004EE0324A016891420FD10421C0F8F4103E
:104BD000324A4FF482710A5008224FF486710A500B
:104BE0002E4A4FF48E710A503AE0294A01689142E8
:104BF0000FD10915C0F8F410294A4FF482710A50F8
:104C0000D2144FF486710A50254A4FF48E710A501F
:104C100026E0204A016891420FD10915C0F8F4102E
:104C2000204A4FF482710A50D2144FF486710A5010
:104C30001C4A4FF48E710A5012E01B4A01689142DF
:104C40000ED18914C0F8F410164A4FF482710A503C
:104C500004224FF486710A50144A4FF48E710A50A0
:104C60000222F8210A5000224FF488710A50FC21D8
:104C70000A500322091D0A5000224FF485710A547C
:104C800000BF89E700380140440002400044004072
:104C900000480040004C0040580402400008014019
:104CA000000C014000100140005000400014014081
:104CB00010B502F045FA03F093FB02F05BFA10BD69
:104CC00010B5002100200022214B5B6803F00C018D
:104CD00021B1042906D0082928D107E01D4B1E4C1C
:104CE000236027E01B4B1C4C236023E0184B5B68C0
:104CF00003F47010164B5B6803F48032022303EB5D
:104D0000904022B9154B4343134C23600DE0104BE8
:104D10005B6803F4003323B1104B43430E4C236014
:104D200003E00C4B43430C4C236003E0094B0A4C5B
:104D3000236000BF00BF064B5B68C3F30313084C3E
:104D4000E15C054B1B68CB40034C236010BD0000A9
:104D50000010024000127A00740B002000093D0090
:104D6000B58D0008704770477047704770477047AF
:104D70007047000010B50268204B98420ED0204BBF
:104D800098420BD0B0F1804F08D01E4B984205D00E
:104D90001D4B984202D01D4B984203D122F0700265
:104DA0004B681A43154B98420ED0154B98420BD0C6
:104DB000B0F1804F08D0134B984205D0124B984267
:104DC00002D0124B984203D122F44072CB681A43AE
:104DD00022F080034C6943EA040202608B68C362DC
:104DE0000B688362054B984202D0054B984201D173
:104DF0000B6903630123436110BD0000002C0140D7
:104E0000003401400004004000080040000C004055
:104E100030B501F01F05012404FA05F3046A9C4330
:104E20000462046A01F01F0502FA05F52C430462CE
:104E300030BD000030B5056A25F001050562026A43
:104E40004368846924F0700424F003040D682C4343
:104E500022F002028D682A43104DA84200D103E0DF
:104E60000F4DA84206D100BF22F00802CD682A43A8
:104E700022F00402094DA84202D0094DA84207D1F0
:104E800023F4807323F400734D692B438D692B4306
:104E9000436084614D684563026230BD002C01406F
:104EA0000034014030B5056A25F010050562026A3C
:104EB0004368846924F4E04424F440740D6844EAAF
:104EC000052422F020028D6842EA0512124DA84204
:104ED00000D103E0114DA84207D100BF22F08002AB
:104EE000CD6842EA051222F040020B4DA84202D0E2
:104EF0000A4DA84209D123F4806323F400634D696D
:104F000043EA85038D6943EA8503436084614D6804
:104F10008563026230BD0000002C01400034014076
:104F200030B5056A25F480750562026A4368C46974
:104F300024F0700424F003040D682C4322F4007262
:104F40008D6842EA0522124DA84200D103E0114DBE
:104F5000A84207D100BF22F40062CD6842EA0522D0
:104F600022F480620A4DA84202D00A4DA84209D11B
:104F700023F4805323F400534D6943EA05138D69EC
:104F800043EA05134360C4614D68C563026230BDE6
:104F9000002C01400034014030B5056A25F48055ED
:104FA0000562036A4468C26922F4E04222F4407256
:104FB0000D6842EA052223F400538D6843EA053365
:104FC000084DA84202D0084DA84204D124F48044E0
:104FD0004D6944EA85144460C2614D68056403620A
:104FE00030BD0000002C0140003401402DE9F047A5
:104FF00092B082464B220021BD4802F089FA20225D
:10500000BC490AA8FBF76BF91422BA49203105A85C
:10501000FBF765F900200490B7490860B4483C30BC
:10502000A0F10F01A0F11E02A0F12D03CDE9002196
:1050300002901E3AB1A15046FBF776F9AE490860DE
:105040000846006810B912B0BDE8F087AFA1A848C3
:1050500002F0A6FE90B90021A5480F3003F052FDE2
:105060000E900021A2481E3003F04CFD0F9020222C
:105070000AA9A748006802F063FB37E1A5A19C4894
:1050800002F08EFE00283AD1002199480F3003F03B
:105090002BFD0546FBF7CEFBC4B29FA194481E3002
:1050A00002F07EFE18B901208DF8440002E00020D5
:1050B0008DF8440034B1012C09D0022C0CD0032C03
:1050C00014D10EE096480E9096490F910FE0964845
:1050D0000E9094490F910AE094480E9091490F91D7
:1050E00005E000200E908F490F9100E000BF00BF47
:1050F00020220AA98648006802F022FBF6E08CA173
:105100007B4802F04DFE60B9002179480F3003F072
:10511000F9FC0990142205A98648006802F010FBEA
:10512000E4E085A1724802F03BFE60B900217048BE
:105130000F3003F0E7FC0490042204A97F480068C4
:1051400002F0FEFAD2E07EA1694802F029FE20BBFF
:105150007DA167480F3002F023FE58B90B227CA1D5
:105160000AA802F097F920220AA96948006802F00B
:10517000E7FABBE079A15E480F3002F011FE00288B
:10518000BCD10D2277A105A802F084F9142205A94B
:105190006848006802F0D4FAA8E076A1544802F00A
:1051A000FFFD0028AAD174A151480F3002F0F8FD8C
:1051B00080BB00214E481E3003F0A4FC0E9000215D
:1051C0004B482D3003F09EFC0F90002148483C30A6
:1051D00003F098FC10900EA96A48FCF767FA694939
:1051E0008868FBF740FB04460D4666494868FBF7B4
:1051F0003AFB06460F4663490868FBF734FB8046D6
:1052000042460B4660A0CDE90067CDE9024500F0BB
:1052100083FE6BE0FFE763A135480F3002F0C0FD6D
:1052200070BB002132481E3003F06CFC0E90002150
:105230002F482D3003F066FC0F9000212C483C30A5
:1052400003F060FC10900EA95848FCF72FFA57495C
:105250008868FBF708FB8046894654494868FBF795
:1052600002FB04460D4651490868FBF7FCFA064666
:1052700032460B464EA08DE8300300F04DFE35E07F
:1052800051A11B480F3002F08BFD78BB002118485C
:105290001E3003F037FC0E90002115482D3003F02E
:1052A00031FC0F90002112483C3003F02BFC109091
:1052B0000EA94948FCF7FAF947498868FBF7D3FA81
:1052C00004460D4644494868FBF7CDFA06460F46AA
:1052D00041490868FBF7C7FA804642460B463FA0A3
:1052E000CDE90067CDE9024500F016FE00BFAAE651
:1052F000800B0020508C0008F40900202573202525
:105300007320257320257320257300004A5356000F
:105310002C0000204A534200507265737300000055
:10532000000034430000C8420000B4420000B4C290
:105330004C500000280000204400000030000020F5
:105340004D4F4445000000004155544F00000000FF
:105350004155544F205354415254000048414E444B
:105360004C45000048414E444C4520535441525452
:10537000000000005049440044657074685049447E
:1053800000000000340000204465707468504944F7
:1053900020252E326620252E326620252E32660DDF
:1053A0000A00000059617750494400007C00002049
:1053B00059617750494420252E326620252E3266C9
:1053C00020252E32660D0A004C696E65506174729C
:1053D0006F6C504944000000C40000204C696E65A9
:1053E000506174726F6C50494420252E326620251E
:1053F0002E326620252E32660D0A00000FB42DE9EC
:10540000FE4F00240025002700265B480290109CD8
:105410005A48D0F8705121462846FBF763F80746F2
:105420003A4629465648FCF7CFF8064655492046E5
:10543000FBF782FA63D854492046FBF773FA5ED82B
:1054400086F0004000900299FBF752F883464F49DE
:10545000FBF780F882464E49FAF7F2FF814646494B
:10546000FAF7EEFF8046FBF7D1F94A49088030464B
:105470000299FBF73DF883464449FBF76BF88246F7
:105480004349FAF7DDFF81463B49FAF7D9FF8046E9
:10549000FBF7BCF93F49C88000212046FBF742FAE0
:1054A00019D238492046FBF747FA14D83948008802
:1054B0003849C988884222DD36490888FBF772F9E5
:1054C00001903448C088334908800198FBF79EF961
:1054D0003049C88013E02F4800882E49C988884287
:1054E0000DDA2C490888FBF75DF901902948C0883E
:1054F000284908800198FBF789F92649C8800021CE
:105500002046FBF70FFA04D140F20E6021490880D3
:10551000C8802048008840F24651884202DA084696
:105520001C4908801B48008840F27261884202DDF5
:105530000846184908801748C08840F246518842FA
:1055400002DA08461349C8801248C08840F27261E6
:10555000884202DD08460F49C8800E4801880020B5
:1055600000F0F6F90B48C188032000F0F1F9BDE81E
:10557000FE0F5DF814FB000000004842A403002069
:10558000C40000200000B4C20000B4420000C842C1
:105590000080BB44EC0900202DE9F0412648D0F8FA
:1055A0006C510026324629462448FCF70DF8044683
:1055B00084F0004822494046FAF742FF0746FBF7CD
:1055C00025F9204948801E492046FAF739FF074649
:1055D000FBF71CF91B4988800846408840F2465179
:1055E000884202DA0846174948801648408840F247
:1055F0007261884202DD084612494880114880885D
:1056000040F24651884202DA08460E4988800D4829
:10561000808840F27261884202DD0846094988802C
:1056200008484188012000F093F90648818802204B
:1056300000F08EF9BDE8F081A40300200C010020E9
:105640000080BB44EC0900200FB42DE9FF5F00256A
:1056500000200390002602900024129D13980390CE
:1056600000212846FBF75EF905D14FF4C860954943
:105670000880C88018E194492846FBF753F905D102
:105680004FF4AF608F490880C8800DE18F48D0F893
:10569000706129463046FAF725FF029031468C4862
:1056A000029AFBF791FF04468A492846FBF744F922
:1056B0006ED889492846FBF735F969D884F000404F
:1056C0004FF080410090FAF745FF83460399FAF7BF
:1056D0000FFF82468149FAF73DFF81468049FAF77C
:1056E000AFFE80467D49FAF7ABFE0746FBF78EF822
:1056F000744908804FF080412046FAF72BFF83461B
:105700000399FAF7F5FE82467449FAF723FF8146BA
:105710007349FAF795FE80467049FAF791FE0746FD
:10572000FBF774F86749C88000212846FBF7FAF8B0
:1057300019D268492846FBF7FFF814D86148008859
:105740006049C98888420DDD5E490888FBF72AF860
:1057500001905C48C0885B4908800198FBF756F8C7
:105760005849C8807BE0574800885649C988884214
:1057700075DA54490888FBF715F801905148C0883C
:10578000504908800198FBF741F84E49C88066E00F
:1057900054492046FAF7DEFE83460399FAF7A8FE3D
:1057A00082464E49FAF7D6FE81464D49FAF748FE41
:1057B00080464A49FAF796FE0746FBF727F8414923
:1057C000088084F0004047490090FAF7C3FE834602
:1057D0000399FAF78DFE82464049FAF7BBFE8146EF
:1057E0003F49FAF72DFE80463C49FAF77BFE074613
:1057F000FBF70CF83349C88036492846FBF792F886
:1058000019D239492846FBF797F814D82D48008853
:105810002C49C988884222DA2A490888FAF7C2FF47
:1058200001902848C088274908800198FAF7EEFFC0
:105830002449C88013E0234800882249C988884247
:105840000DDD20490888FAF7ADFF01901D48C0889A
:105850001C4908800198FAF7D9FF1A49C8801948ED
:10586000008840F24651884202DA0846154908800D
:105870001448008840F27261884202DD08461149EE
:1058800008801048C08840F24651884202DA084633
:105890000C49C8800B48C08840F27261884202DD22
:1058A00008460849C88000BF06480188002000F06B
:1058B0004FF80448C188032000F04AF8BDE8FF1FF4
:1058C0005DF814FBEC09002000003443A403002021
:1058D0007C0000200000B4C20000B4420000C842B6
:1058E0000080BB440000C040000033C310B500205E
:1058F00000F03CF8012000F039F8022000F036F802
:10590000032000F033F810BD10B541F27070FBF7C2
:105910002DFF40F2DC510C48FCF77CF840F2DC51E2
:1059200009488830FCF776F840F2DC510748FCF76C
:1059300071F840F2DC5105488830FCF76BF84FF401
:10594000FA60FBF713FF10BDAC050020BC06002079
:1059500070B504460D4604EB0411034A02EBC10086
:105960002946FCF757F870BDAC05002010B5044679
:1059700004EB0411064A02EBC10040F2DC51FCF7D3
:1059800049F840F2DC50034921F8140010BD000032
:10599000AC050020EC09002010B50F48FCF788F892
:1059A0000E48FCF785F80E48FBF75CFE0D48FBF748
:1059B00059FE0D48FBF756FE0C48FBF753FE0C480A
:1059C000FDF760FB0B48FDF75DFF08210A48FCF777
:1059D00053F8FFF799FF10BD540100207C0200200E
:1059E000340000207C000020C40000200C010020B6
:1059F000A403002044050020AC05002004E0FFF7CC
:105A0000CBFD6420FBF7B2FEF9E77047704770B535
:105A100006460025746A20684069C0F3C01594F8F2
:105A20003900212805D125B10020E084204600F06E
:105A300050F820684069C0F3801594F83A00222895
:105A400005D125B10020E085204600F032F8E06B5A
:105A500040F01000E0632046FDF71DF970BD70B501
:105A600005466C6A2868006800F02000B0B9002084
:105A7000E0852068C06820F480702168C8602068D4
:105A8000406920F00100216848612068406920F0E9
:105A9000400021684861202084F83A002046FDF744
:105AA00097F970BD70B50446656A2846FDF791F90F
:105AB00070BD0168C96821F490710268D160016805
:105AC000496921F0010102685161202180F83A10F2
:105AD00070470168C96821F0C0010268D1602021C7
